:100000000C9462000C948A000C948A000C948A0070
:100010000C948A000C948A000C948A000C948A0038
:100020000C948A000C948A000C948A000C948A0028
:100030000C948A000C948A000C948A000C948A0018
:100040000C94C1050C948A000C9431060C940B0698
:100050000C948A000C948A000C948A000C948A00F8
:100060000C948A000C948A000000000023002600F3
:10007000290000000008000201000003040700003E
:1000800000000000000000000000250028002B00F8
:1000900000000000240027002A00040404040404D3
:1000A0000404020202020202030303030303010227
:1000B00004081020408001020408102001020408F6
:1000C0001020360B11241FBECFEFD8E0DEBFCDBF0E
:1000D00012E0A0E0B1E0E6ECFEE102C005900D9276
:1000E000A63FB107D9F723E0A6EFB2E001C01D9209
:1000F000A63BB207E1F710E0C2E6D0E004C02197CA
:10010000FE010E942B0EC136D107C9F70E9463067B
:100110000C94610F0C94000090E0FC01E255FF4F3D
:10012000249186569F4FFC018491882399F090E09A
:10013000880F991FFC01E057FF4FA591B491FC0176
:10014000EA57FF4F859194918FB7F894EC91E22B89
:10015000EC938FBF0895833081F028F4813099F0BB
:100160008230A9F008958730A9F08830C9F0843032
:10017000B1F4809180008F7D03C0809180008F77E3
:1001800080938000089584B58F7784BD089584B5E9
:100190008F7DFBCF8091B0008F778093B000089562
:1001A0008091B0008F7DF9CFCF93DF93282F30E07F
:1001B000F901EE58FF4F8491F901E255FF4FD491B8
:1001C000F901E656FF4FC491CC23A1F081110E94A2
:1001D000AB00EC2FF0E0EE0FFF1FE859FF4FA591A9
:1001E000B491EC91ED2381E090E009F480E0DF919F
:1001F000CF91089580E090E0FACF1F93CF93DF93E3
:10020000282F30E0F901EE58FF4F8491F901E255B3
:10021000FF4FD491F901E656FF4FC491CC23A9F0CA
:10022000162F81110E94AB00EC2FF0E0EE0FFF1FA4
:10023000EA57FF4FA591B4918FB7F894EC91111143
:1002400008C0D095DE23DC938FBFDF91CF911F9143
:100250000895DE2BF8CF3FB7F89480911103909169
:100260001203A0911303B091140326B5A89B05C0F7
:100270002F3F19F00196A11DB11D3FBFBA2FA92F25
:10028000982F8827BC01CD01620F711D811D911D22
:1002900042E0660F771F881F991F4A95D1F708958E
:1002A0008F929F92AF92BF92CF92DF92EF92FF9286
:1002B0004B015C010E942B016B017C010E942B0110
:1002C0006C197D098E099F09683E7340810591056F
:1002D000A8F321E0821A9108A108B10888EEC80E9F
:1002E00083E0D81EE11CF11C81149104A104B10427
:1002F00029F7FF90EF90DF90CF90BF90AF909F9045
:100300008F900895AF92BF92CF92DF92EF92FF92BB
:100310000F931F93CF93DF936C017B018B01040F2D
:10032000151FEB015E01AE18BF08C017D10759F0C9
:100330006991D601ED91FC910190F081E02DC6010B
:100340000995892B79F7C501DF91CF911F910F9105
:10035000FF90EF90DF90CF90BF90AF900895FC0199
:10036000538D448D252F30E0842F90E0821B930B1A
:10037000541710F0CF96089501970895FC01918DC0
:10038000828D981761F0A28DAE0FBF2FB11D5D96C3
:100390008C91928D9F5F9F73928F90E008958FEF65
:1003A0009FEF0895FC01918D828D981731F0828D19
:1003B000E80FF11D858D90E008958FEF9FEF089570
:1003C000FC01918D228D892F90E0805C9F4F821BD4
:1003D00091098F739927089585E193E00E94E001C8
:1003E00021E0892B09F420E0822F089580E090E03D
:1003F000892B29F00E94EC0181110C9400000895D2
:10040000FC01A48DA80FB92FB11DA35ABF4F2C9189
:10041000848D90E001968F739927848FA689B78980
:100420002C93A089B1898C91837080648C93938D77
:10043000848D981306C00288F389E02D80818F7D1A
:1004400080830895EF92FF920F931F93CF93DF93D2
:10045000EC0181E0888F9B8D8C8D98131AC0E88900
:10046000F989808185FF15C09FB7F894EE89FF89CF
:100470006083E889F98980818370806480839FBF6D
:1004800081E090E0DF91CF911F910F91FF90EF906D
:100490000895F62E0B8D10E00F5F1F4F0F7311277D
:1004A000E02E8C8D8E110CC00FB607FCFACFE889B8
:1004B000F989808185FFF5CFCE010E940002F1CF3E
:1004C000EB8DEC0FFD2FF11DE35AFF4FF0829FB72C
:1004D000F8940B8FEA89FB8980818062CFCFCF931C
:1004E000DF93EC01888D8823B9F0AA89BB89E8895C
:1004F000F9898C9185FD03C0808186FD0DC00FB602
:1005000007FCF7CF8C9185FFF2CF808185FFEDCF7F
:10051000CE010E940002E9CFDF91CF910895FC0146
:1005200001900020E9F73197AF01481B590BBC013E
:1005300085E193E00C9482018F929F92AF92BF92DB
:100540000F931F93CF93DF93CDB7DEB7A1970FB66D
:10055000F894DEBF0FBECDBF19A2423008F44AE0C6
:100560008E010F5D1F4F842E912CB12CA12CA50163
:1005700094010E94CC0CE62FB901CA01EA30F4F4D0
:10058000E05DD801EE938D01232B242B252B79F7E9
:1005900090E080E0109719F0CD010E948F02A196A3
:1005A0000FB6F894DEBF0FBECDBFDF91CF911F9184
:1005B0000F91BF90AF909F908F900895E95CE1CF2D
:1005C000009711F00C948F0290E080E008958F92D4
:1005D0009F92AF92BF92CF92DF92EF92FF925B0118
:1005E00069017A018CE791E00E94E0028AE691E0DD
:1005F0000E94E0028CE791E00E94E00289E691E02F
:100600000E94E002C5010E94E0028CE691E00E9497
:10061000E002A7019601C701B6010E94170E8823C8
:1006200061F08EE691E0FF90EF90DF90CF90BF9069
:10063000AF909F908F900C948F0246015701E894E1
:10064000B7F82FEF3FEF4FE75FE7C501B4010E9416
:10065000170E81110DC02FEF3FEF4FE75FE7C50188
:10066000B4010E94890B18161CF482E791E0DBCFDD
:100670002FEF3FEF4FE75FE4C701B6010E94120E74
:1006800018161CF486E791E0CECF2FEF3FEF4FE72F
:100690005FECC701B6010E94890B87FDF3CF20E014
:1006A00030E0A901C701B6010E94890B87FF09C08C
:1006B0006DE285E193E00E942202F7FAF094F7F8E8
:1006C000F0942AE037ED43EA5BE3C701B6010E94EC
:1006D000FE0C4B015C010E94E30D6B017C010E944A
:1006E0008E0B9B01AC01C501B4010E94FD0C4B01B6
:1006F0005C014AE0C701B6010E949C026EE285E1FE
:1007000093E00E94220220E030E040E251E4C50183
:10071000B4010E94EF0B4B015C010E94E30D6B01E1
:10072000F12CE12C4AE0C701B6010E949C02C701EE
:10073000B6010E948E0B9B01AC01C501B4010E9461
:10074000FD0C20E030E040E251E40E94EF0B0E94FB
:10075000E30D90E080E04AE0FF90EF90DF90CF90D3
:10076000BF90AF909F908F900C949C028F929F921D
:10077000BF92CF92DF92EF92FF920F931F93CF938E
:10078000DF93EB014A016901BE2C2881222331F05D
:100790000E94E0028AE691E00E94E002CE010E94FF
:1007A000E0028AE691E00E94E002C4010E94E002B9
:1007B00089E691E00E94E002C6010E94E0028CE618
:1007C00091E00E94E0026801110FEE08FF084AE084
:1007D000C701B601F7FE0DC06DE285E193E00E940E
:1007E000220266277727CB016C197D098E099F09A4
:1007F0004AE00E949C02BB2079F08AE791E0DF91F9
:10080000CF911F910F91FF90EF90DF90CF90BF900D
:100810009F908F900C948F02DF91CF911F910F9139
:10082000FF90EF90DF90CF90BF909F908F900895B2
:100830008F929F92AF92BF92CF92DF92EF920F93DF
:100840001F93CF93DF935C014B0165367105C8F0B0
:10085000EE24E3948B012DE731E041E851E06FE8AD
:1008600071E08DE991E00E94B603DF91CF911F9175
:100870000F91EF90DF90CF90BF90AF909F908F90AF
:1008800008952FEF30E0DB010E94240E24E630E0D3
:1008900040E050E00E94AD0CE9016901E12C8501C6
:1008A00021EA31E047EA51E06FE871E085EB91E041
:1008B0000E94B603EE24E39484012DE731E04CE777
:1008C00051E0BA0185EB91E00E94B603F501EE0F0D
:1008D000FF1FE55CFE4F00811181802F0E948C007C
:1008E000209779F460E0802FDF91CF911F910F91D5
:1008F000EF90DF90CF90BF90AF909F908F900C942F
:10090000FD00CF3FD10511F461E0EDCFF801FF27E5
:10091000EE58FF4FE491E33021F148F4E130B9F0B3
:10092000E230D1F080E8C816D10474F7DBCFE730AD
:1009300011F1E83041F1E430A9F780918000806244
:1009400080938000D0938B00C0938A008ECF84B5B3
:10095000806884BDC7BD89CF84B5806284BDC8BDB1
:1009600084CF80918000806880938000D09389003C
:10097000C09388007ACF8091B00080688093B000E7
:10098000C093B30072CF8091B00080628093B000BA
:10099000C093B4006ACFCF92DF92EF920F931F9370
:1009A000CF93DF93EC016B016130710571F48E011F
:1009B000000F111F000F111F075D1E4F60E0F801AF
:1009C00080810E94FD0061E010C062307105E1F598
:1009D0008E01000F111F000F111F075D1E4F61E0F8
:1009E000F80180810E94FD0060E0F80182810E9490
:1009F000FD00E12C8E0121EA31E047EA51E06DEB88
:100A000071E085EB91E00E94B603EE24E394860149
:100A100029EB31E04CE751E0BA0185EB91E00E940F
:100A2000B603CC0FDD1FCC0FDD1FC75DDE4F888105
:100A30000E94D4008A81DF91CF911F910F91EF9096
:100A4000DF90CF900C94D4006115710549F48E01AC
:100A5000000F111F000F111F075D1E4F61E0AFCF88
:100A6000EE24E3948B0129EB31E041E851E06DEB9A
:100A700071E08DE991E00E94B603DF91CF911F9163
:100A80000F91EF90DF90CF900895CF93DF93C82F11
:100A9000D0E0BE0181E090E00E94CB04BE0182E084
:100AA00090E00E94CB04BE0183E090E00E94CB0462
:100AB000BE0184E090E0DF91CF910C94CB04EF92E3
:100AC0000F931F9380910803909109038130910542
:100AD00059F581E00E94450589E190E090930B0370
:100AE00080930A030091080310910903E12C25EC7F
:100AF00031E047EA51E06FEC71E085EB91E00E9454
:100B0000B60300910A0310910B03EE24E39427E946
:100B100031E04CE751E0BA0185EB91E00E94B60369
:100B20001F910F91EF9008958230910511F482E0AA
:100B3000D1CF892B89F610920B0310920A03E12C76
:100B400010E000E025EC31E047EA51E06FEC71E0A5
:100B500085EB91E00E94B60300910A0310910B030C
:100B6000EE24E39427E931E04CE751E0BA0185EB4C
:100B700091E00E94B60380E01F910F91EF900C94DA
:100B800045051F920F920FB60F9211242F933F939A
:100B90008F939F93AF93BF9380910D0390910E031A
:100BA000A0910F03B091100330910C0323E0230FA9
:100BB0002D3758F50196A11DB11D20930C0380938C
:100BC0000D0390930E03A0930F03B0931003809135
:100BD000110390911203A0911303B0911403019695
:100BE000A11DB11D8093110390931203A0931303D1
:100BF000B0931403BF91AF919F918F913F912F912B
:100C00000F900FBE0F901F90189526E8230F0296A5
:100C1000A11DB11DD2CF1F920F920FB60F921124BA
:100C20002F933F934F935F936F937F938F939F93F4
:100C3000AF93BF93EF93FF9385E193E00E9400028F
:100C4000FF91EF91BF91AF919F918F917F916F91A4
:100C50005F914F913F912F910F900FBE0F901F907A
:100C600018951F920F920FB60F9211242F938F9306
:100C70009F93EF93FF93E0912503F09126038081EA
:100C8000E0912B03F0912C0382FD1BC09081809199
:100C90002E038F5F8F7320912F03821741F0E09115
:100CA0002E03F0E0EB5EFC4F958F80932E03FF91B7
:100CB000EF919F918F912F910F900FBE0F901F90EA
:100CC00018958081F4CFCF93DF9300D01F92CDB7DA
:100CD000DEB7789484B5826084BD84B5816084BDBC
:100CE00085B5826085BD85B5816085BD80916E00CA
:100CF000816080936E0010928100809181008260FB
:100D00008093810080918100816080938100809137
:100D100080008160809380008091B1008460809326
:100D2000B1008091B00081608093B00080917A0022
:100D3000846080937A0080917A00826080937A0048
:100D400080917A00816080937A0080917A00806837
:100D500080937A001092C100E0912503F091260360
:100D600082E08083E0912103F09122031082E091E0
:100D70002303F09124038FEC808310922D03E091E4
:100D80002903F0912A0386E08083E0912703F09104
:100D90002803808180618083E0912703F0912803FC
:100DA000808188608083E0912703F091280380810F
:100DB00080688083E0912703F091280380818F7DF4
:100DC00080832DE331E03B832A8325E4C22E21E09A
:100DD000D22EAA81BB811C911296BB83AA83812F3C
:100DE0000E948C0060E0812F0E94FD00EA81FB815F
:100DF000CE16DF0671F72DE231E03B832A839DE3B7
:100E0000C92E91E0D92EAA81BB811C91812F0E940D
:100E10008C0060E0812F0E94FD00EA81FB8112813D
:100E2000812F0E948C0060E0812F0E94FD002A81AA
:100E30003B812C5F3F4F3B832A83C216D30619F7B1
:100E400089E0282E85E193E00E94E001892B09F4D6
:100E5000B8C18AEF90E0A0E0B0E0809319039093CE
:100E60001A03A0931B03B0931C03A6EFB2E0BB834D
:100E7000AA8310E085E193E00E94E001892B09F448
:100E80003FC11F30B8F785E193E00E94BE01EA81BF
:100E9000FB81E65FF2408A3039F5EA50FD4F10825F
:100EA0000091F602011127C0EE24E39410E000E067
:100EB0002CED31E042EF51E060EE71E08DE991E020
:100EC0000E94B6030091F602002E000C110BEE24D6
:100ED000E3942CED31E041E552E067E672E08DE904
:100EE00091E00E94B6036DC1EA81FB818193FB838F
:100EF000EA831F5FBFCF6CE270E086EF92E00E9452
:100F0000560FFC01892B51F4002E000C110BEE241E
:100F1000E3942CED31E049EE51E0CECF8091F70221
:100F20008C3211F40F3F51F4002E000C110BEE2403
:100F3000E3942CED31E044E052E0BECFCF010196C6
:100F40002181FC01DC01211110C0002E000C110BCD
:100F5000EE24E3942CED31E047E152E06AE272E0E6
:100F60008DE991E00E94B60317C02D91222369F00C
:100F700020532A30D0F3002E000C110BEE24E39402
:100F80002CED31E04BED52E0E9CF2191222309F421
:100F9000C3C020532A30C8F30091F602002E000C83
:100FA000110BEE24E3942CED31E048E352E084CFC2
:100FB00090E080E0289ED001299EB00D1124AB5B0B
:100FC000BE4F1596ED91FC9116973097C1F017968C
:100FD0002D913C911216130694F490E080E041911B
:100FE0005191C416D506F1F0019628173907B9F7C3
:100FF000BDC081E090E0DECF82E090E0DBCF289EB4
:10100000F001299EF00D1124EB5BFE4F818192814E
:10101000C816D9060CF4AAC0838194818C159D054D
:101020000CF4A4C0033569F480910A0390910B037A
:101030009093140180931301D0920B03C0920A0382
:10104000BDC0043469F48091080390910903909322
:10105000120180931101D0920903C0920803AEC01F
:101060000C3481F480910603909107039093100152
:1010700080930F01D194C194D108D0920703C092FC
:1010800006039CC0023509F099C080910603909137
:1010900007039093100180930F01EFCF0E94900BF4
:1010A000362E872E982EA92E01151105E9F0A301E1
:1010B000920160E070E080E89FE30E94FD0C9B01DC
:1010C000AC01632D782D892D9A2D0E946A0D232D58
:1010D000382D492D5A2D0E94FD0CB62EC72ED82E24
:1010E0009983A1E0AA83DCC1B62E64019983B1E0A3
:1010F000BA83D6C18091060181958093060135C2DD
:1011000000910000002E000C110BEE24E3942CED56
:1011100031E044E052E0E1CE0E94630B6C010196A5
:1011200009F43ACF83E090E00E94310E5C01DC01CB
:101130000C931296DC92CE921197892B09F4C2CEB1
:10114000802F877F843439F08EEA800F823070F4EC
:10115000033509F42DCF043409F44BCF0C3409F4D2
:101160004BCF83E090E0023509F424CFE02F000F4D
:10117000FF0BFB83EA83E12C8F012CED31E048E388
:1011800052E067E672E08DE991E00E94B6030A81C1
:101190001B812EE632E04CE751E0BA018DE991E087
:1011A0000E94B603EE24E394860126E732E04CE782
:1011B00051E0BA018DE991E00E94B603C5010E9499
:1011C000CD0E009113011091140180910A039091AA
:1011D0000B038017910709F4ACC0E12C2FE732E034
:1011E00047EA51E069E872E085EB91E00E94B603BE
:1011F00000910A0310910B03EE24E39427E931E0F8
:101200004CE751E0BA0185EB91E00E94B6030091F2
:101210000A0310910B03109314010093130101159D
:10122000110521F41092090310920803B801012E50
:10123000000C880B990B0E94900B4B015C012091D4
:101240000B0130910C0140910D0150910E010E9453
:10125000EF0B2B013C0120910701309108014091D7
:10126000090150910A01C501B4010E94EF0B4B0125
:101270005C01E12C2FE732E047EA51E063E972E0DC
:1012800085EB91E00E94B60300910A0310910B03D5
:1012900027E931E04CE751E0BA0185EB91E00E948B
:1012A000B603A30192016CE972E085EB91E00E9424
:1012B000E702A501940166EA72E085EB91E00E94E5
:1012C000E702009111011091120121EB32E04CE78D
:1012D00051E0BA0185EB91E00E94B603009108034A
:1012E00010910903EE24E39425EC31E04CE751E042
:1012F000BA0185EB91E00E94B603C301B2010E94DE
:10130000DC0D2B0181E090E00E941804B20182E024
:1013100090E00E941804C501B4010E94DC0D4B014D
:1013200083E090E00E941804B40184E090E00E9401
:10133000180420910803309109033B832A8380918C
:1013400011019091120128173907B1F11092090388
:10135000109208030E945F0568EE73E080E090E061
:101360000E9450010091110110911201E12C21EB1A
:1013700032E047EA51E069E872E085EB91E00E94D3
:10138000B6030091080310910903EE24E39425ECC1
:1013900031E04CE751E0BA0185EB91E00E94B603E1
:1013A0008A819B8190930903809308039093120193
:1013B000809311010E945F0500910F0110911001AF
:1013C00080910603909107038017910709F43BC1B0
:1013D000E12C2FEB32E047EA51E069E872E085EB5F
:1013E00091E00E94B6030091060310910703EE24DA
:1013F000E39423EC32E04CE751E0BA0185EB91E055
:101400000E94B60300910603109107031093100188
:1014100000930F01C80117FF04C088279927801B7C
:10142000910B6DE270E0681B790B072E000C880BA6
:10143000990B0E94900B20E030E044E352E40E94BC
:101440006A0D2B013C01E0900A03F0900B03B701F9
:101450000F2C000C880B990B17FF20CE0E94900BCD
:10146000B62EC72ED82E9983A301920160E070E0BA
:1014700080E89FE30E94FD0C9B01AC016B2D7C2D4D
:101480008D2D99810E946A0D2B2D3C2D4D2D59815A
:101490000E94FD0C362E872E982EA92E9FEF9A8340
:1014A00020E030E048EC52E4632D782D892D9A2D10
:1014B0000E946A0D60930B0170930C0180930D01E3
:1014C00090930E0120E030E048EC52E46B2D7C2D2F
:1014D0008D2D99810E946A0D609307017093080118
:1014E0008093090190930A012B2D3C2D4D2D59819C
:1014F000632D782D892D9A2D0E94890B811114C09E
:1015000080E090E0A0E8BFE380930B0190930C0192
:10151000A0930D01B0930E018093070190930801F1
:10152000A0930901B0930A014A8140039001419FB1
:10153000300D1124AEECBFEF0E941C0E2DE230E006
:1015400040E050E00E94AD0C2C593F4F4F4F5F4F91
:1015500081E0E114F10409F4D0CD84E6E816F10449
:1015600009F0C8CD9FEF90930601A22FB0E0BB8396
:10157000AA83C701AE15BF050CF4CD012091060169
:10158000820F911D27FD9A9590930B0380930A0378
:10159000E12C2FEB32E047EA51E069EC72E085EB99
:1015A00091E00E94B603009106031091070323EC1B
:1015B00032E04CE751E0BA0185EB91E00E94B603BE
:1015C000A301920160ED72E085EB91E00E94E702D9
:1015D000232D382D492D5A2D6CE972E085EB91E0D1
:1015E0000E94E7022B2D3C2D4D2D598166EA72E0B9
:1015F00085EB91E00E94E7020A811B8122ED32E037
:101600004CE751E0BA0185EB91E00E94B6030091EE
:101610001301109114012FE732E04CE751E0BA01B9
:1016200085EB91E00E94B60300910A0310910B0331
:10163000EE24E39427E931E04CE751E0BA0185EB71
:1016400091E00E94B60364E670E080E090E00E94C2
:101650005001E0E0F0E0EF2B09F4F4CB0E94EC0144
:10166000882309F4EDCB0E940000EACBE5E1F3E02A
:101670001382128288EE93E0A0E0B0E08483958329
:10168000A683B7838FE191E09183808385EC90E01E
:101690009587848784EC90E09787868780EC90E03C
:1016A000918B808B81EC90E0938B828B82EC90E02D
:1016B000958B848B86EC90E0978B868B118E128EA7
:1016C000138E148E0895FC0188279927E8942191A0
:1016D0002032E9F3293010F02E30C8F32B3241F0DC
:1016E0002D3239F4689404C00E94810B820F911D41
:1016F000219120532A30C0F31EF4909581959F4F7D
:1017000008957AE0979F902D879F802D910D112449
:1017100008950E94CB0B08F481E00895E89409C075
:1017200097FB3EF490958095709561957F4F8F4F14
:101730009F4F9923A9F0F92F96E9BB279395F6952A
:10174000879577956795B795F111F8CFFAF4BB0FA8
:1017500011F460FF1BC06F5F7F4F8F4F9F4F16C00C
:10176000882311F096E911C0772321F09EE8872F96
:10177000762F05C0662371F096E8862F70E060E052
:101780002AF09A95660F771F881FDAF7880F9695CB
:10179000879597F90895990F0008550FAA0BE0E86F
:1017A000FEEF16161706E807F907C0F01216130623
:1017B000E407F50798F0621B730B840B950B39F463
:1017C0000A2661F0232B242B252B21F408950A26C9
:1017D00009F4A140A6958FEF811D811D08950E94F7
:1017E000020C0C94730C0E94650C38F00E946C0C77
:1017F00020F0952311F00C945C0C0C94620C1124D5
:101800000C94A70C0E94840C70F3959FC1F3950F64
:1018100050E0551F629FF001729FBB27F00DB11D74
:10182000639FAA27F00DB11DAA1F649F6627B00D04
:10183000A11D661F829F2227B00DA11D621F739FED
:10184000B00DA11D621F839FA00D611D221F749FFB
:101850003327A00D611D231F849F600D211D822F42
:10186000762F6A2F11249F5750409AF0F1F0882369
:101870004AF0EE0FFF1FBB1F661F771F881F915096
:101880005040A9F79E3F510580F00C945C0C0C94DD
:10189000A70C5F3FE4F3983ED4F386957795679560
:1018A000B795F795E7959F5FC1F7FE2B880F911DC0
:1018B0009695879597F9089597F99F6780E870E066
:1018C00060E008959FEF80EC089500240A941616B6
:1018D000170618060906089500240A94121613061E
:1018E000140605060895092E0394000C11F48823AC
:1018F00052F0BB0F40F4BF2B11F460FF04C06F5FC8
:101900007F4F8F4F9F4F089557FD9058440F551F9D
:1019100059F05F3F71F04795880F97FB991F61F071
:101920009F3F79F087950895121613061406551FE8
:10193000F2CF4695F1DF08C0161617061806991F54
:10194000F1CF86957105610508940895E894BB2749
:1019500066277727CB0197F90895052E97FB1EF48C
:1019600000940E94C40C57FD07D00E94CC0C07FCC9
:1019700003D04EF40C94C40C5095409530952195AD
:101980003F4F4F4F5F4F08959095809570956195AB
:101990007F4F8F4F9F4F0895A1E21A2EAA1BBB1BAA
:1019A000FD010DC0AA1FBB1FEE1FFF1FA217B3072B
:1019B000E407F50720F0A21BB30BE40BF50B661F41
:1019C000771F881F991F1A9469F760957095809505
:1019D00090959B01AC01BD01CF010895A29FB0017C
:1019E000B39FC001A39F700D811D1124911DB29F53
:1019F000700D811D1124911D08955058BB27AA27F1
:101A00000E94150D0C94730C0E94650C38F00E9416
:101A10006C0C20F039F49F3F19F426F40C94620CFE
:101A20000EF4E095E7FB0C945C0CE92F0E94840C0B
:101A300058F3BA17620773078407950720F079F403
:101A4000A6F50C94A60C0EF4E0950B2EBA2FA02D43
:101A50000B01B90190010C01CA01A0011124FF275B
:101A6000591B99F0593F50F4503E68F11A16F04056
:101A7000A22F232F342F4427585FF3CF4695379555
:101A80002795A795F0405395C9F77EF41F16BA0B1A
:101A9000620B730B840BBAF09150A1F0FF0FBB1FC8
:101AA000661F771F881FC2F70EC0BA0F621F731F11
:101AB000841F48F4879577956795B795F7959E3F6E
:101AC00008F0B0CF9395880F08F09927EE0F9795FF
:101AD000879508950E947E0D0C94730C0E946C0CE7
:101AE00058F00E94650C40F029F45F3F29F00C94F7
:101AF0005C0C51110C94A70C0C94620C0E94840C89
:101B000068F39923B1F3552391F3951B550BBB272C
:101B1000AA2762177307840738F09F5F5F4F220F71
:101B2000331F441FAA1FA9F335D00E2E3AF0E0E868
:101B300032D091505040E695001CCAF72BD0FE2FB2
:101B400029D0660F771F881FBB1F26173707480746
:101B5000AB07B0E809F0BB0B802DBF01FF279358FE
:101B60005F4F3AF09E3F510578F00C945C0C0C945A
:101B7000A70C5F3FE4F3983ED4F38695779567957D
:101B8000B795F7959F5FC9F7880F911D9695879533
:101B900097F90895E1E0660F771F881FBB1F621752
:101BA00073078407BA0720F0621B730B840BBA0B10
:101BB000EE1F88F7E09508950E94E30D6894B11137
:101BC0000C94A70C08950E948C0C88F09F5798F0F5
:101BD000B92F9927B751B0F0E1F0660F771F881F32
:101BE000991F1AF0BA95C9F714C0B13091F00E944C
:101BF000A60CB1E008950C94A60C672F782F8827C7
:101C0000B85F39F0B93FCCF3869577956795B39572
:101C1000D9F73EF490958095709561957F4F8F4FE1
:101C20009F4F08950E94CB0B08F48FEF08950E94F8
:101C3000CB0B880B990B08950E94EE0C332312F402
:101C40008A1B9B0B0C94260E0E94EE0CB7FF089586
:101C5000821B930B0895EE0FFF1F0590F491E02D6A
:101C600009940F931F93CF93DF938230910510F463
:101C700082E090E0E091B403F091B50330E020E021
:101C8000B0E0A0E0309799F42115310509F44AC07D
:101C9000281B390B24303105D8F58A819B816115C9
:101CA000710589F1FB0193838283FE0111C040819C
:101CB00051810281138148175907E0F048175907ED
:101CC00099F4109761F012960C93129713961C9347
:101CD0003296CF01DF91CF911F910F91089500931C
:101CE000B4031093B503F4CF2115310551F0421719
:101CF000530738F0A901DB019A01BD01DF01F801AA
:101D0000C1CFEF01F9CF9093B5038093B403CDCF4A
:101D1000FE01E20FF31F8193919322503109398321
:101D20002883D7CF2091B2033091B303232B41F402
:101D300020911701309118013093B3032093B2031F
:101D400020911501309116012115310541F42DB76F
:101D50003EB74091190150911A01241B350BE091B7
:101D6000B203F091B303E217F307A0F42E1B3F0B6D
:101D70002817390778F0AC014E5F5F4F24173507FD
:101D800048F04E0F5F1F5093B3034093B20381930B
:101D900091939FCFF0E0E0E09CCFCF93DF9300974B
:101DA000E9F0FC01329713821282A091B403B09142
:101DB000B503ED0130E020E01097A1F420813181DE
:101DC000820F931F2091B2033091B3032817390774
:101DD00009F061C0F093B303E093B203DF91CF91B8
:101DE0000895EA01CE17DF07E8F54A815B819E017D
:101DF00041155105B1F7E901FB83EA8349915991F6
:101E0000C40FD51FEC17FD0761F480819181029604
:101E1000840F951FE90199838883828193819B8335
:101E20008A83F0E0E0E012968D919C9113970097E1
:101E3000B9F52D913C911197CD010296820F931F18
:101E40002091B2033091B3032817390739F6309740
:101E500051F51092B5031092B403B093B303A0935D
:101E6000B203BCCFD383C28340815181840F951FBD
:101E7000C817D90761F44E5F5F4F88819981480F79
:101E8000591F518340838A819B81938382832115CB
:101E9000310509F0B0CFF093B503E093B4039ECFC2
:101EA000FD01DC01C0CF13821282D7CFFC018191EA
:101EB000861721F08823D9F7992708953197CF0104
:061EC0000895F894FFCF25
:101EC600010002000000010000803F0000803F0189
:101ED60000010001000000B603800000000000229F
:101EE600028201AF016F02E001BE01D201020004CD
:101EF60000070008000A000B000C000D0003000597
:101F060000060009005300006400000000004400C1
:101F1600000200000103004C00002D00000000003C
:101F26005200002D00000000003A20003D006E61C6
:101F36006E00696E66006F7666000D0A0073706447
:101F460000696E76616C69642076616C75650073F4
:101F560065744D6F746F725370656564002845290A
:101F6600006D6F746F720063757272656E742076A1
:101F7600616C75650028492900646972007365748F
:101F86004D6F746F72446972656374696F6E007326
:101F96006574446972656374696F6E00636D64008D
:101FA6007061727365436D6400636F6D6D61206966
:101FB6006E20636F6D6D616E64206973206162735C
:101FC600656E740077726F6E6720636F6D6D616EFC
:101FD6006420636F6465007A65726F20636F6D6D50
:101FE600616E642076616C7565007061727365431D
:101FF6006D6456616C756500636F6D6D616E64200E
:102006006861736E27742076616C696461746564B7
:1020160000636F6D6D616E64206861736E27742056
:1020260070617273656400736574436D6400702D2E
:102036003E636F646500702D3E76616C7565007059
:1020460072657653706565640069734368616E678F
:102056006564007365745370656564006C656674C9
:10206600537065656400726967687453706565646A
:102076000070726576446972656374696F6E00708C
:10208600726576416E676C6500736574416E6700B4
:102096006B0053706565644D617000636F6D6D61B3
:1020A6006E642076616C75652069736E2774206E88
:0620B600756D6265720009
:00000001FF
