:020000040000FA
:100000000C9462000C948A000C948A000C948A0070
:100010000C948A000C948A000C948A000C948A0038
:100020000C948A000C948A000C948A000C948A0028
:100030000C948A000C948A000C948A000C948A0018
:100040000C9438050C948A000C9406050C94E0047A
:100050000C948A000C948A000C948A000C948A00F8
:100060000C948A000C948A000000000023002600F3
:10007000290000000008000201000003040700003E
:1000800000000000000000000000250028002B00F8
:1000900000000000240027002A00040404040404D3
:1000A0000404020202020202030303030303010227
:1000B00004081020408001020408102001020408F6
:1000C0001020DD0711241FBECFEFD8E0DEBFCDBF6B
:1000D00013E0A0E0B1E0EEE9F7E102C005900D9277
:1000E000A031B107D9F723E0A0E1B3E001C01D9230
:1000F000A23DB207E1F710E0C2E6D0E004C02197CC
:10010000FE010E94970AC136D107C9F70E948205F5
:100110000C94CD0B0C94000090E0FC01E255FF4FD5
:10012000249186569F4FFC018491882399F090E09A
:10013000880F991FFC01E057FF4FA591B491FC0176
:10014000EA57FF4F859194918FB7F894EC91E22B89
:10015000EC938FBF0895AF92BF92CF92DF92EF9250
:10016000FF920F931F93CF93DF936C017B018B0161
:10017000040F151FEB015E01AE18BF08C017D107B1
:1001800059F06991D601ED91FC910190F081E02D3B
:10019000C6010995892B79F7C501DF91CF911F9190
:1001A0000F91FF90EF90DF90CF90BF90AF900895A8
:1001B000FC01538D448D252F30E0842F90E0821B6D
:1001C000930B541710F0CF96089501970895FC01F2
:1001D000918D828D981761F0A28DAE0FBF2FB11D4A
:1001E0005D968C91928D9F5F9F73928F90E00895A2
:1001F0008FEF9FEF0895FC01918D828D981731F05C
:10020000828DE80FF11D858D90E008958FEF9FEFAF
:100210000895FC01918D228D892F90E0805C9F4F85
:10022000821B91098F739927089581E393E00E94BF
:10023000090121E0892B09F420E0822F089580E054
:1002400090E0892B29F00E94150181110C94000087
:100250000895FC01A48DA80FB92FB11DA35ABF4F5B
:100260002C91848D90E001968F739927848FA689B5
:10027000B7892C93A089B1898C91837080648C9309
:10028000938D848D981306C00288F389E02D8081B8
:100290008F7D80830895EF92FF920F931F93CF93EA
:1002A000DF93EC0181E0888F9B8D8C8D98131AC0B1
:1002B000E889F989808185FF15C09FB7F894EE8998
:1002C000FF896083E889F9898081837080648083F5
:1002D0009FBF81E090E0DF91CF911F910F91FF9040
:1002E000EF900895F62E0B8D10E00F5F1F4F0F73E8
:1002F0001127E02E8C8D8E110CC00FB607FCFACFA3
:10030000E889F989808185FFF5CFCE010E94290116
:10031000F1CFEB8DEC0FFD2FF11DE35AFF4FF08273
:100320009FB7F8940B8FEA89FB8980818062CFCFD9
:10033000CF93DF93EC01888D8823B9F0AA89BB891C
:10034000E889F9898C9185FD03C0808186FD0DC007
:100350000FB607FCF7CF8C9185FFF2CF808185FF28
:10036000EDCFCE010E942901E9CFDF91CF91089511
:10037000833081F028F4813099F08230A9F008951B
:100380008730A9F08830C9F08430B1F480918000C2
:100390008F7D03C0809180008F77809380000895C7
:1003A00084B58F7784BD089584B58F7DFBCF809110
:1003B000B0008F778093B00008958091B0008F7D5A
:1003C000F9CFCF93DF93282F30E0F901EE58FF4F9C
:1003D0008491F901E255FF4FD491F901E656FF4FA0
:1003E000C491CC23A1F081110E94B801EC2FF0E060
:1003F000EE0FFF1FE859FF4FA591B491EC91ED234B
:1004000081E090E009F480E0DF91CF91089580E0F1
:1004100090E0FACF1F93CF93DF93282F30E0F901BC
:10042000EE58FF4F8491F901E255FF4FD491F90145
:10043000E656FF4FC491CC23A9F0162F81110E94DC
:10044000B801EC2FF0E0EE0FFF1FEA57FF4FA59128
:10045000B4918FB7F894EC91111108C0D095DE23B8
:10046000DC938FBFDF91CF911F910895DE2BF8CFE2
:100470003FB7F8948091150390911603A09117034C
:10048000B091180326B5A89B05C02F3F19F001961F
:10049000A11DB11D3FBFBA2FA92F982F8827BC01DE
:1004A000CD01620F711D811D911D42E0660F771F06
:1004B000881F991F4A95D1F70895FC0101900020EB
:1004C000E9F73197AF01481B590BBC0181E393E079
:1004D0000C94AB00CF93DF930E945D02EC018CE59E
:1004E00091E00E945D028C0F9D1FDF91CF910895D6
:1004F000FC019191992351F090539A30D0F38FE5FC
:1005000091E00E946A0290E080E0089581E090E02E
:100510000895EF92FF920F931F93CF93DF93653669
:10052000710550F085E691E0DF91CF911F910F9119
:10053000FF90EF900C946A02DB018C012FEF30E00A
:100540000E94900A24E630E040E050E00E942B092F
:10055000E9017901000F111FF801E25DFE4F0081F2
:100560001181802F0E948C00209751F460E0802F31
:10057000DF91CF911F910F91FF90EF900C940A02A1
:10058000CF3FD10511F461E0F2CFF801FF27EE581B
:10059000FF4FE491E33051F148F4E130B9F0E2303B
:1005A00001F180E8E816F10474F7E0CFE73041F19B
:1005B000E83071F1E430A9F7809180008062809387
:1005C0008000D0938B00C0938A0004C084B58068FB
:1005D00084BDC7BDDF91CF911F910F91FF90EF9028
:1005E000089584B5806284BDC8BDF4CF8091800039
:1005F000806880938000D0938900C0938800EACF00
:100600008091B00080688093B000C093B300E2CFC7
:100610008091B00080628093B000C093B400DACFC4
:100620008F929F92AF92BF92CF92DF92EF92FF9202
:100630000F931F93CF93DF9300912B0310912C0303
:10064000C80117FF04C088279927801B910B6DE212
:1006500070E0681B790B072E000C880B990B0E9429
:10066000320820E030E044E352E40E94E8096B01E4
:100670007C01C0912F03D091300317FF3BC0BE0116
:100680000D2E000C880B990B0E9432084B015C0167
:10069000A701960160E070E080E89FE30E947B097B
:1006A0009B01AC01C501B4010E946D080E945A0A69
:1006B0008E01EB01BE0181E090E00E948902BE0143
:1006C00082E090E00E948902B80183E090E00E94FD
:1006D0008902B80184E090E0DF91CF911F910F91E2
:1006E000FF90EF90DF90CF90BF90AF909F908F9052
:1006F0000C948902012BD9F0BE010D2E000C880B41
:10070000990B0E9432084B015C01A701960160E041
:1007100070E080E89FE30E947B099B01AC01C5016A
:10072000B4010E946D080E945A0A8B01C3CF8E014A
:10073000C1CFCF93DF9310922C0310922B03C09163
:100740002F03D0913003BE0181E090E00E94890226
:10075000BE0182E090E00E948902BE0183E090E049
:100760000E948902BE0184E090E0DF91CF910C9459
:100770008902CF93DF93880F991F880F991FFC017F
:10078000E45EFE4FD081C2816130710581F460E08A
:100790008D2F0E940A0261E08C2F0E940A028D2F89
:1007A0000E94E1018C2FDF91CF910C94E10161E077
:1007B0008D2F0E940A0260E0EFCFCF9370E060E0DF
:1007C00081E090E00E94890270E060E082E090E0C9
:1007D0000E94890270E060E083E090E00E9489025C
:1007E00070E060E084E090E00E9489028091060160
:1007F000909107018130910509F04EC061E070E0F1
:1008000081E090E00E94B90361E070E082E090E056
:100810000E94B90361E070E083E090E00E94B903B8
:1008200061E070E084E090E00E94B90380912F03C2
:1008300090913003C9E1C89FB001C99F700D112488
:1008400081E090E00E94890280912F039091300313
:10085000C89FB001C99F700D112482E090E00E94F2
:10086000890280912F0390913003C89FB001C99FE6
:10087000700D112483E090E00E94890280912F0383
:1008800090913003C89FB001C99F700D112484E07E
:1008900090E0CF910C948902029741F662E070E0FB
:1008A00081E090E00E94B90362E070E082E090E0B5
:1008B0000E94B90362E070E083E090E00E94B90317
:1008C00062E070E0AFCF8F929F92AF92BF92CF92D3
:1008D000DF92EF92FF920F931F93CF93DF93CDB7E9
:1008E000DEB7A1970FB6F894DEBF0FBECDBF6C0187
:1008F000990FEE08FF08F7FE41C06DE281E393E037
:100900000E944B018C0122273327A9012C193D0994
:100910004E095F0919A2CE0181967C019AE0892EC9
:10092000912CA12CB12CCA01B901A50194010E94FE
:100930004A09605DF70162937F0121153105410588
:10094000510589F790E080E0309719F0CF010E94BF
:100950005D02800F911FA1960FB6F894DEBF0FBE07
:10096000CDBFDF91CF911F910F91FF90EF90DF905E
:10097000CF90BF90AF909F908F900895A701960160
:1009800019A28E010F5D1F4F8AE0C82ED12CE12CD9
:10099000F12CCA01B901A70196010E944A09605DC4
:1009A000F80162938F01211531054105510589F741
:1009B00090E080E0309779F2CF010E945D02CBCFCA
:1009C0001F920F920FB60F9211242F933F934F93C4
:1009D0005F936F937F938F939F93AF93BF93EF93A7
:1009E000FF9381E393E00E942901FF91EF91BF9172
:1009F000AF919F918F917F916F915F914F913F91B7
:100A00002F910F900FBE0F901F9018951F920F926D
:100A10000FB60F9211242F938F939F93EF93FF9311
:100A2000E0914103F09142038081E0914703F0910E
:100A3000480382FD1BC0908180914A038F5F8F73B2
:100A400020914B03821741F0E0914A03F0E0EF5C04
:100A5000FC4F958F80934A03FF91EF919F918F9167
:100A60002F910F900FBE0F901F9018958081F4CF9B
:100A70001F920F920FB60F9211242F933F938F93D3
:100A80009F93AF93BF938091110390911203A09114
:100A90001303B09114033091100323E0230F2D377B
:100AA00058F50196A11DB11D2093100380931103E9
:100AB00090931203A0931303B09314038091150332
:100AC00090911603A0911703B09118030196A11DF0
:100AD000B11D8093150390931603A0931703B09351
:100AE0001803BF91AF919F918F913F912F910F90DC
:100AF0000FBE0F901F90189526E8230F0296A11D98
:100B0000B11DD2CF789484B5826084BD84B58160F4
:100B100084BD85B5826085BD85B5816085BD8091C8
:100B20006E00816080936E00109281008091810040
:100B30008260809381008091810081608093810038
:100B4000809180008160809380008091B1008460FA
:100B50008093B1008091B00081608093B00080915B
:100B60007A00846080937A0080917A00826080931A
:100B70007A0080917A00816080937A0080917A0077
:100B8000806880937A001092C100E0914103F09157
:100B9000420382E08083E0913D03F0913E031082A6
:100BA000E0913F03F09140038FEC80831092490362
:100BB000E0914503F091460386E08083E091430392
:100BC000F0914403808180618083E0914303F09140
:100BD0004403808188608083E0914303F091440363
:100BE000808180688083E0914303F0914403808199
:100BF0008F7D8083C0E3D1E058E3E52E51E0F52EF0
:100C000018812296812F0E948C0060E0812F0E9423
:100C10000A02EC16FD06A1F7C0E2D1E01881812F8F
:100C20000E948C0060E0812F0E940A021A81812FAD
:100C30000E948C0060E0812F0E940A02249621E02D
:100C4000C033D20759F70E9499030E9410030E94F3
:100C5000DD0339E0632E44E6842E912CA12CB12CC7
:100C600081E393E00E940901892B09F499C08092E5
:100C7000350390923603A0923703B0923803C9E14E
:100C8000D3E010E081E393E00E940901892B09F48D
:100C900091C11F30B8F781E393E00E94E700FE01A5
:100CA000E951F3408A3081F4E75EFC4F10821091E5
:100CB000190311110CC080E891E00E946A028AE4D5
:100CC00092E00E946A026CC089931F5FDBCF6CE2E6
:100CD00070E089E193E00E94C20B009719F48FE95C
:100CE00091E0EBCF20911A032C3211F41F3F19F43D
:100CF0008CEB91E0E2CFEC012196FC018181811126
:100D000007C08EED91E00E946A0287E292E0D5CFA3
:100D1000CE010E947802892B19F48EEF91E0F3CF77
:100D2000CE010E9478027C01F1E0EF22FF2480FFD7
:100D3000ECCFCE010E940A08EC01019631F383E06A
:100D400090E00E949D0A6C01FC011083D283C18354
:100D5000892B09F4B4CF812F877F843439F08EEA50
:100D6000810F823090F4133509F44BC0143409F428
:100D70004AC01C3409F466C023E0E22EF12C12357F
:100D800009F441C083E992E002C08EE692E00E943D
:100D90006A0285EB92E00E946A02C6010E94390B4A
:100DA0000E9438026B017C0184E6282E312C412CF4
:100DB000512C0E9438026C197D098E099F09683EEA
:100DC000734081059105A8F3F1E02F1A310841081D
:100DD000510828EEC20E23E0D21EE11CF11C2114A2
:100DE00031044104510429F780E090E0892B09F493
:100DF00037CF0E941501882309F432CF0E940000EA
:100E00002FCFF12CE12C6E9CD0016F9CB00D1124E2
:100E1000A85CBE4F1596ED91FC9116973097B1F0F6
:100E200017962D913C911216130684F490E080E001
:100E300041915191C417D507E1F001962817390760
:100E4000B9F7A0CF92E0E92EF12CDDCF6E9CF00136
:100E50006F9CF00D1124E85CFE4F81819281C817D0
:100E6000D9070CF48FCF838194818C179D070CF4E4
:100E700089CF1C3409F485C00CF064C0143409F423
:100E800073C0C6010E94390B80912F0390913003EB
:100E900020912D0330912E0382179307A1F0909398
:100EA0002E0380932D030E94990383ED92E00E940C
:100EB0005D0280912F03909130030E94630489EDBD
:100EC00092E00E945D0280910601909107012091BD
:100ED00004013091050182179307A1F09093050159
:100EE000809304010E94DD038BED92E00E945D027D
:100EF00080910601909107010E94630489ED92E0C0
:100F00000E945D0280912B0390912C032091290374
:100F100030912A038217930781F090932A038093DC
:100F200029030E94100387EE92E00E945D028091E7
:100F30002B0390912C030E9463048CE591E00E94A6
:100F40005D022ECF123569F1133509F09ACF8091E9
:100F50002F039091300390932E0380932D03D09311
:100F60003003C0932F038DCF80910601909107012C
:100F70009093050180930401D0930701C09306016B
:100F800080CF80912B0390912C0390932A03809320
:100F90002903D195C195D109D0932C03C0932B037C
:100FA00070CF80912B0390912C0390932A03809310
:100FB0002903F2CF8FEE92E084CEE1E3F3E01382D7
:100FC000128288EE93E0A0E0B0E084839583A6834C
:100FD000B78382E191E09183808385EC90E09587EF
:100FE000848784EC90E09787868780EC90E0918BF3
:100FF000808B81EC90E0938B828B82EC90E0958BE0
:10100000848B86EC90E0978B868B118E128E138EDC
:10101000148E0895FC0188279927E89421912032A5
:10102000E9F3293010F02E30C8F32B3241F02D3285
:1010300039F4689404C00E942808820F911D219100
:1010400020532A30C0F31EF4909581959F4F089548
:101050007AE0979F902D879F802D910D1124089500
:10106000E89409C097FB3EF4909580957095619542
:101070007F4F8F4F9F4F9923A9F0F92F96E9BB27F8
:101080009395F695879577956795B795F111F8CF74
:10109000FAF4BB0F11F460FF1BC06F5F7F4F8F4FDF
:1010A0009F4F16C0882311F096E911C0772321F0D5
:1010B0009EE8872F762F05C0662371F096E8862F6D
:1010C00070E060E02AF09A95660F771F881FDAF7C4
:1010D000880F9695879597F908950E9480080C943B
:1010E000F1080E94E30838F00E94EA0820F09523F6
:1010F00011F00C94DA080C94E00811240C942509E2
:101100000E94020970F3959FC1F3950F50E0551F9F
:10111000629FF001729FBB27F00DB11D639FAA274C
:10112000F00DB11DAA1F649F6627B00DA11D661F9B
:10113000829F2227B00DA11D621F739FB00DA11DBC
:10114000621F839FA00D611D221F749F3327A00D76
:10115000611D231F849F600D211D822F762F6A2F12
:1011600011249F5750409AF0F1F088234AF0EE0F77
:10117000FF1FBB1F661F771F881F91505040A9F7A4
:101180009E3F510580F00C94DA080C9425095F3FCE
:10119000E4F3983ED4F3869577956795B795F795E0
:1011A000E7959F5FC1F7FE2B880F911D9695879558
:1011B00097F9089597F99F6780E870E060E00895D7
:1011C0009FEF80EC089500240A941616170618065F
:1011D0000906089500240A9412161306140605063B
:1011E0000895092E0394000C11F4882352F0BB0FCC
:1011F00040F4BF2B11F460FF04C06F5F7F4F8F4F2F
:101200009F4F089557FD9058440F551F59F05F3F69
:1012100071F04795880F97FB991F61F09F3F79F018
:1012200087950895121613061406551FF2CF46959A
:10123000F1DF08C0161617061806991FF1CF86951C
:101240007105610508940895E894BB276627772700
:10125000CB0197F90895052E97FB1EF400940E9488
:10126000420957FD07D00E944A0907FC03D04EF4FB
:101270000C94420950954095309521953F4F4F4F22
:101280005F4F089590958095709561957F4F8F4F32
:101290009F4F0895A1E21A2EAA1BBB1BFD010DC092
:1012A000AA1FBB1FEE1FFF1FA217B307E407F50716
:1012B00020F0A21BB30BE40BF50B661F771F881FF2
:1012C000991F1A9469F760957095809590959B0188
:1012D000AC01BD01CF010895A29FB001B39FC00131
:1012E000A39F700D811D1124911DB29F700D811D52
:1012F0001124911D08955058BB27AA270E949309D5
:101300000C94F1080E94E30838F00E94EA0820F0EB
:1013100039F49F3F19F426F40C94E0080EF4E0959C
:10132000E7FB0C94DA08E92F0E94020958F3BA1778
:10133000620773078407950720F079F4A6F50C94EB
:1013400024090EF4E0950B2EBA2FA02D0B01B90144
:1013500090010C01CA01A0011124FF27591B99F02B
:10136000593F50F4503E68F11A16F040A22F232F37
:10137000342F4427585FF3CF469537952795A79587
:10138000F0405395C9F77EF41F16BA0B620B730B2E
:10139000840BBAF09150A1F0FF0FBB1F661F771F9F
:1013A000881FC2F70EC0BA0F621F731F841F48F454
:1013B000879577956795B795F7959E3F08F0B0CFDD
:1013C0009395880F08F09927EE0F979587950895C4
:1013D0000E94FC090C94F1080E94EA0858F00E944F
:1013E000E30840F029F45F3F29F00C94DA0851112A
:1013F0000C9425090C94E0080E94020968F39923D3
:10140000B1F3552391F3951B550BBB27AA27621700
:101410007307840738F09F5F5F4F220F331F441F0D
:10142000AA1FA9F335D00E2E3AF0E0E832D0915041
:101430005040E695001CCAF72BD0FE2F29D0660F2E
:10144000771F881FBB1F261737074807AB07B0E871
:1014500009F0BB0B802DBF01FF2793585F4F3AF077
:101460009E3F510578F00C94DA080C9425095F3FF3
:10147000E4F3983ED4F3869577956795B795F795FD
:101480009F5FC9F7880F911D9695879597F90895E5
:10149000E1E0660F771F881FBB1F62177307840781
:1014A000BA0720F0621B730B840BBA0BEE1F88F790
:1014B000E09508950E94610A6894B1110C94250981
:1014C00008950E940A0988F09F5798F0B92F99272C
:1014D000B751B0F0E1F0660F771F881F991F1AF01F
:1014E000BA95C9F714C0B13091F00E942409B1E057
:1014F00008950C942409672F782F8827B85F39F056
:10150000B93FCCF3869577956795B395D9F73EF4B7
:1015100090958095709561957F4F8F4F9F4F08955F
:101520000E946C09B7FF0895821B930B0895EE0F7C
:10153000FF1F0590F491E02D09940F931F93CF9313
:10154000DF938230910510F482E090E0E091D003C7
:10155000F091D10330E020E0B0E0A0E0309799F4C2
:101560002115310509F44AC0281B390B24303105F7
:10157000D8F58A819B816115710589F1FB019383FF
:101580008283FE0111C0408151810281138148177D
:101590005907E0F04817590799F4109761F012962F
:1015A0000C93129713961C933296CF01DF91CF9133
:1015B0001F910F9108950093D0031093D103F4CF9E
:1015C0002115310551F04217530738F0A901DB010D
:1015D0009A01BD01DF01F801C1CFEF01F9CF90936E
:1015E000D1038093D003CDCFFE01E20FF31F81938F
:1015F00091932250310939832883D7CF2091CE038C
:101600003091CF03232B41F420910A0130910B013B
:101610003093CF032093CE0320910801309109012C
:101620002115310541F42DB73EB740910C01509181
:101630000D01241B350BE091CE03F091CF03E2178F
:10164000F307A0F42E1B3F0B2817390778F0AC01E5
:101650004E5F5F4F2417350748F04E0F5F1F5093C2
:10166000CF034093CE03819391939FCFF0E0E0E0CE
:101670009CCFCF93DF930097E9F0FC013297138260
:101680001282A091D003B091D103ED0130E020E0AF
:101690001097A1F420813181820F931F2091CE03F6
:1016A0003091CF032817390709F061C0F093CF03B9
:1016B000E093CE03DF91CF910895EA01CE17DF07C3
:1016C000E8F54A815B819E0141155105B1F7E901B9
:1016D000FB83EA8349915991C40FD51FEC17FD078D
:1016E00061F4808191810296840F951FE9019983AD
:1016F0008883828193819B838A83F0E0E0E0129665
:101700008D919C9113970097B9F52D913C9111976C
:10171000CD010296820F931F2091CE033091CF030B
:101720002817390739F6309751F51092D1031092E6
:10173000D003B093CF03A093CE03BCCFD383C28397
:1017400040815181840F951FC817D90761F44E5FFE
:101750005F4F88819981480F591F518340838A8147
:101760009B81938382832115310509F0B0CFF093DB
:10177000D103E093D0039ECFFD01DC01C0CF1382E3
:101780001282D7CFFC018191861721F08823D9F7E7
:10179000992708953197CF010895F894FFCF01005C
:1017A0000200010001000000D203800000000000E0
:1017B0004B01AB00D80098010901E700FB000200D3
:1017C0000400070008000A000B000C000D000300D5
:1017D00005000600090053000064000000000044FA
:1017E00002000100000102004C00002D000000007A
:1017F000005200002D00000000000D0A0066616C20
:101800007365004572726F723A20496E76616C6939
:10181000642073706565642076616C75650045723F
:10182000726F723A207061727365436D6420636FEA
:101830006D6D616E6420616273656E7400457272D5
:101840006F723A207061727365436D6420636F6DCF
:101850006D6120616273656E74004572726F723AD9
:10186000207061727365436D642077726F6E6720BC
:10187000636F646520666F726D6174004572726F8C
:10188000723A207061727365436D6456616C756560
:10189000207A65726F2076616C7565004572726F93
:1018A000723A207061727365436D6456616C756540
:1018B0002076616C7565206973206E6F74206E757B
:1018C0006D626572004572726F723A207061727358
:1018D00065436D642077726F6E672076616C756505
:1018E00020666F726D6174004572726F723A207378
:1018F0006574436D6420436F6D6D616E642070612B
:101900007273696E67206572726F72004572726FD2
:10191000723A20697356616C6964436F6D6D616ED4
:101920006420636F6465206E6F7420666F756E64EB
:10193000004572726F723A20697356616C69644334
:101940006F6D6D616E642077726F6E672076616C6B
:101950007565004572726F723A20736574436D64E9
:1019600020496E76616C696420636F6D6D616E6491
:101970000053706565643A20004469726563746958
:101980006F6E3A2000416E676C653A2000457272B6
:101990006F723A20736574436D6420436F6D6D619F
:0E19A0006E642072656164206572726F720061
:107E0000112484B714BE81FFF0D085E080938100F7
:107E100082E08093C00088E18093C10086E0809377
:107E2000C20080E18093C4008EE0C9D0259A86E02C
:107E300020E33CEF91E0309385002093840096BBD3
:107E4000B09BFECF1D9AA8958150A9F7CC24DD24C4
:107E500088248394B5E0AB2EA1E19A2EF3E0BF2EE7
:107E6000A2D0813461F49FD0082FAFD0023811F036
:107E7000013811F484E001C083E08DD089C08234E0
:107E800011F484E103C0853419F485E0A6D080C0E4
:107E9000853579F488D0E82EFF2485D0082F10E0AE
:107EA000102F00270E291F29000F111F8ED06801E7
:107EB0006FC0863521F484E090D080E0DECF843638
:107EC00009F040C070D06FD0082F6DD080E0C81688
:107ED00080E7D80618F4F601B7BEE895C0E0D1E017
:107EE00062D089930C17E1F7F0E0CF16F0E7DF06D8
:107EF00018F0F601B7BEE89568D007B600FCFDCFD4
:107F0000A601A0E0B1E02C9130E011968C91119780
:107F100090E0982F8827822B932B1296FA010C0160
:107F200087BEE89511244E5F5F4FF1E0A038BF0790
:107F300051F7F601A7BEE89507B600FCFDCF97BE46
:107F4000E89526C08437B1F42ED02DD0F82E2BD052
:107F50003CD0F601EF2C8F010F5F1F4F84911BD097
:107F6000EA94F801C1F70894C11CD11CFA94CF0C13
:107F7000D11C0EC0853739F428D08EE10CD085E9AC
:107F80000AD08FE07ACF813511F488E018D01DD067
:107F900080E101D065CF982F8091C00085FFFCCF94
:107FA0009093C60008958091C00087FFFCCF809118
:107FB000C00084FD01C0A8958091C6000895E0E648
:107FC000F0E098E1908380830895EDDF803219F02E
:107FD00088E0F5DFFFCF84E1DECF1F93182FE3DFCA
:107FE0001150E9F7F2DF1F91089580E0E8DFEE27F6
:047FF000FF270994CA
:027FFE00040479
:00000001FF
