:020000040000FA
:100000000C9462000C948A000C948A000C948A0070
:100010000C948A000C948A000C948A000C948A0038
:100020000C948A000C948A000C948A000C948A0028
:100030000C948A000C948A000C948A000C948A0018
:100040000C94D7030C948A000C94A5030C947F03A2
:100050000C948A000C948A000C948A000C948A00F8
:100060000C948A000C948A000000000023002600F3
:10007000290000000008000201000003040700003E
:1000800000000000000000000000250028002B00F8
:1000900000000000240027002A00040404040404D3
:1000A0000404020202020202030303030303010227
:1000B00004081020408001020408102001020408F6
:1000C0001020FE0511241FBECFEFD8E0DEBFCDBF4C
:1000D00011E0A0E0B1E0E6E8F5E102C005900D9284
:1000E000A639B107D9F722E0A6E9B1E001C01D9217
:1000F000A234B207E1F710E0C2E6D0E004C02197D5
:10010000FE010E94C908C136D107C9F70E94210427
:100110000C94C10A0C94000090E0FC01E255FF4FE2
:10012000249186569F4FFC018491882399F090E09A
:10013000880F991FFC01E057FF4FA591B491FC0176
:10014000EA57FF4F859194918FB7F894EC91E22B89
:10015000EC938FBF0895AF92BF92CF92DF92EF9250
:10016000FF920F931F93CF93DF936C017B018B0161
:10017000040F151FEB015E01AE18BF08C017D107B1
:1001800059F06991D601ED91FC910190F081E02D3B
:10019000C6010995892B79F7C501DF91CF911F9190
:1001A0000F91FF90EF90DF90CF90BF90AF900895A8
:1001B000FC01538D448D252F30E0842F90E0821B6D
:1001C000930B541710F0CF96089501970895FC01F2
:1001D000918D828D981761F0A28DAE0FBF2FB11D4A
:1001E0005D968C91928D9F5F9F73928F90E00895A2
:1001F0008FEF9FEF0895FC01918D828D981731F05C
:10020000828DE80FF11D858D90E008958FEF9FEFAF
:100210000895FC01918D228D892F90E0805C9F4F85
:10022000821B91098F739927089581EA91E00E94BA
:10023000090121E0892B09F420E0822F089580E054
:1002400090E0892B29F00E94150181110C94000087
:100250000895FC01A48DA80FB92FB11DA35ABF4F5B
:100260002C91848D90E001968F739927848FA689B5
:10027000B7892C93A089B1898C91837080648C9309
:10028000938D848D981306C00288F389E02D8081B8
:100290008F7D80830895EF92FF920F931F93CF93EA
:1002A000DF93EC0181E0888F9B8D8C8D98131AC0B1
:1002B000E889F989808185FF15C09FB7F894EE8998
:1002C000FF896083E889F9898081837080648083F5
:1002D0009FBF81E090E0DF91CF911F910F91FF9040
:1002E000EF900895F62E0B8D10E00F5F1F4F0F73E8
:1002F0001127E02E8C8D8E110CC00FB607FCFACFA3
:10030000E889F989808185FFF5CFCE010E94290116
:10031000F1CFEB8DEC0FFD2FF11DE35AFF4FF08273
:100320009FB7F8940B8FEA89FB8980818062CFCFD9
:10033000CF93DF93EC01888D8823B9F0AA89BB891C
:10034000E889F9898C9185FD03C0808186FD0DC007
:100350000FB607FCF7CF8C9185FFF2CF808185FF28
:10036000EDCFCE010E942901E9CFDF91CF91089511
:10037000833081F028F4813099F08230A9F008951B
:100380008730A9F08830C9F08430B1F480918000C2
:100390008F7D03C0809180008F77809380000895C7
:1003A00084B58F7784BD089584B58F7DFBCF809110
:1003B000B0008F778093B00008958091B0008F7D5A
:1003C000F9CFCF93DF93282F30E0F901EE58FF4F9C
:1003D0008491F901E255FF4FD491F901E656FF4FA0
:1003E000C491CC23A1F081110E94B801EC2FF0E060
:1003F000EE0FFF1FE859FF4FA591B491EC91ED234B
:1004000081E090E009F480E0DF91CF91089580E0F1
:1004100090E0FACF1F93CF93DF93282F30E0F901BC
:10042000EE58FF4F8491F901E255FF4FD491F90145
:10043000E656FF4FC491CC23A9F0162F81110E94DC
:10044000B801EC2FF0E0EE0FFF1FEA57FF4FA59128
:10045000B4918FB7F894EC91111108C0D095DE23B8
:10046000DC938FBFDF91CF911F910895DE2BF8CFE2
:100470003FB7F89480919B0190919C01A0919D01C0
:10048000B0919E0126B5A89B05C02F3F19F001969B
:10049000A11DB11D3FBFBA2FA92F982F8827BC01DE
:1004A000CD01620F711D811D911D42E0660F771F06
:1004B000881F991F4A95D1F708958F929F92AF9206
:1004C000BF92CF92DF92EF92FF920E9438024B01CF
:1004D0005C0184E6C82ED12CE12CF12C0E9438025C
:1004E000681979098A099B09683E7340810591055D
:1004F000A8F321E0C21AD108E108F10888EE880EBD
:1005000083E0981EA11CB11CC114D104E104F104C4
:1005100029F7FF90EF90DF90CF90BF90AF909F9022
:100520008F900895CF93DF93FC0101900020E9F7AD
:100530003197AF01481B590BBC0181EA91E00E9441
:10054000AB00EC0142E050E060E371E081EA91E051
:100550000E94AB008C0F9D1FDF91CF91089583E324
:1005600091E00C949202EF92FF920F931F93CF931E
:10057000DF936536710550F082E591E0DF91CF9110
:100580001F910F91FF90EF900C949202DB018C0170
:100590002FEF30E00E94C20824E630E040E050E057
:1005A0000E942607E9017901000F111FF801EA5E98
:1005B000FE4F00811181802F0E948C00209751F402
:1005C00060E0802FDF91CF911F910F91FF90EF900E
:1005D0000C940A02CF3FD10511F461E0F2CFF8018B
:1005E000FF27EE58FF4FE491E33051F148F4E1303A
:1005F000B9F0E23001F180E8E816F10474F7E0CFD9
:10060000E73041F1E83071F1E430A9F780918000E2
:10061000806280938000D0938B00C0938A0004C0D6
:1006200084B5806884BDC7BDDF91CF911F910F91C4
:10063000FF90EF90089584B5806284BDC8BDF4CF6B
:1006400080918000806880938000D0938900C0935F
:100650008800EACF8091B00080688093B000C0939A
:10066000B300E2CF8091B00080628093B000C0936D
:10067000B400DACF1F93CF93DF93880F991F880FB1
:10068000991FEC01C05EDE4F188160E0812F0E944F
:100690000A02CA8161E08C2F0E940A02812F0E9407
:1006A000E1018C2FDF91CF911F910C94E1010F9309
:1006B0001F93CF93DF93EC0188819981009759F0C4
:1006C0002A813B812617370730F081E0DF91CF91F7
:1006D0001F910F9108958B016F5F7F4F0E94F40966
:1006E000009759F0998388831B830A832C813D816D
:1006F000232B59F7FC011082E8CF80E0E7CF1F924F
:100700000F920FB60F9211242F933F934F935F9345
:100710006F937F938F939F93AF93BF93EF93FF93C9
:1007200081EA91E00E942901FF91EF91BF91AF9181
:100730009F918F917F916F915F914F913F912F91F9
:100740000F900FBE0F901F9018951F920F920FB62B
:100750000F9211242F938F939F93EF93FF93E09128
:10076000B101F091B2018081E091B701F091B8013F
:1007700082FD1BC090818091BA018F5F8F732091A1
:10078000BB01821741F0E091BA01F0E0EF55FE4F56
:10079000958F8093BA01FF91EF919F918F912F9147
:1007A0000F900FBE0F901F9018958081F4CF1F926D
:1007B0000F920FB60F9211242F933F938F939F9315
:1007C000AF93BF938091970190919801A091990167
:1007D000B0919A013091960123E0230F2D3758F5FF
:1007E0000196A11DB11D20939601809397019093CE
:1007F0009801A0939901B0939A0180919B019091E7
:100800009C01A0919D01B0919E010196A11DB11D79
:1008100080939B0190939C01A0939D01B0939E01B6
:10082000BF91AF919F918F913F912F910F900FBEEC
:100830000F901F90189526E8230F0296A11DB11D59
:10084000D2CFCF93DF93CDB7DEB728970FB6F8940A
:10085000DEBF0FBECDBF789484B5826084BD84B501
:10086000816084BD85B5826085BD85B5816085BDAB
:1008700080916E00816080936E0010928100809163
:1008800081008260809381008091810081608093EB
:100890008100809180008160809380008091B10010
:1008A00084608093B1008091B00081608093B0003B
:1008B00080917A00846080937A0080917A008260CF
:1008C00080937A0080917A00816080937A00809191
:1008D0007A00806880937A001092C100E091B101A3
:1008E000F091B20182E08083E091AD01F091AE0120
:1008F0001082E091AF01F091B0018FEC80831092F3
:10090000B901E091B501F091B60186E08083E091F4
:10091000B301F091B401808180618083E091B301E3
:10092000F091B401808188608083E091B301F091FF
:10093000B401808180688083E091B301F091B401BB
:1009400080818F7D808308E111E090E2C92E91E0E3
:10095000D92EF801F0800E5F1F4F8F2D0E948C0062
:1009600060E08F2D0E940A02C016D10691F700E2C6
:1009700011E0F801F0808F2D0E948C0060E08F2D37
:100980000E940A02F801F2808F2D0E948C0060E024
:100990008F2D0E940A020C5F1F4FF1E000331F07EA
:1009A00041F78DE691E00E9492021092A001109210
:1009B0009F0170E060E081E090E00E94B30270E08F
:1009C00060E082E090E00E94B30270E060E083E0CB
:1009D00090E00E94B30270E060E084E090E00E944A
:1009E000B30200919F011091A001C80117FF04C03C
:1009F00088279927801B910B6DE270E0681B790BAB
:100A0000072E000C880B990B0E942D0620E030E089
:100A100044E352E40E941A089B01AC0117FF11C085
:100A200060E070E080E89FE30E94AD0720E030E0E6
:100A3000A9010E9468060E948C088B01F12CE12C10
:100A400013C001151105D1F360E070E080E89FE369
:100A50000E94AD0720E030E0A9010E9468060E94D4
:100A60008C087B0110E000E0B80181E090E00E947A
:100A7000B302B80182E090E00E94B302B70183E0C4
:100A800090E00E94B302B70184E090E00E94B302BC
:100A900070E060E081E090E00E94B30270E060E00E
:100AA00082E090E00E94B30270E060E083E090E0BA
:100AB0000E94B30270E060E084E090E00E94B30224
:100AC00081E090E00E943A0382E090E00E943A03C5
:100AD00083E090E00E943A0384E090E00E943A03B1
:100AE00070E060E081E090E00E94B30270E060E0BE
:100AF00082E090E00E94B30270E060E083E090E06A
:100B00000E94B30270E060E084E090E00E94B302D3
:100B100080E0E82E80E0F82E8FE791E00E949202BC
:100B20001A8219821C821B821E821D8270E060E084
:100B3000CE0101960E94570329813A81811115C087
:100B40002115310519F0C9010E946B091A82198219
:100B50001E821D821C821B8281EA91E00E94090193
:100B6000892B59F40E945D02F7CF1E821D8262E339
:100B700071E0C9010E94BA0AEFCF81EA91E00E94B8
:100B80000901892B39F181EA91E00E94E700182FD1
:100B9000682F81EA91E00E944B011A30D9F01F833F
:100BA00018860D811E810F5F1F4FB801CE0101967F
:100BB0000E945703882309F329813A818D819E8100
:100BC000BE01695F7F4F820F931F0E94BA0A1E8386
:100BD0000D83D3CF89819A81009711F00E946B0910
:100BE0000E945D02E114F10409F496CF0E94150100
:100BF000882309F491CF0E9400008ECFE1EAF1E052
:100C00001382128288EE93E0A0E0B0E084839583A3
:100C1000A683B7838AE091E09183808385EC90E09E
:100C20009587848784EC90E09787868780EC90E0B6
:100C3000918B808B81EC90E0938B828B82EC90E0A7
:100C4000958B848B86EC90E0978B868B118E128E21
:100C5000138E148E0895E89409C097FB3EF4909586
:100C60008095709561957F4F8F4F9F4F9923A9F085
:100C7000F92F96E9BB279395F69587957795679514
:100C8000B795F111F8CFFAF4BB0F11F460FF1BC058
:100C90006F5F7F4F8F4F9F4F16C0882311F096E9EB
:100CA00011C0772321F09EE8872F762F05C0662399
:100CB00071F096E8862F70E060E02AF09A95660F52
:100CC000771F881FDAF7880F9695879597F908950B
:100CD0000E947B060C94EC060E94DE0638F00E940F
:100CE000E50620F0952311F00C94D5060C94DB0654
:100CF00011240C9420070E94FD0670F3959FC1F308
:100D0000950F50E0551F629FF001729FBB27F00DB9
:100D1000B11D639FAA27F00DB11DAA1F649F66270E
:100D2000B00DA11D661F829F2227B00DA11D621F5D
:100D3000739FB00DA11D621F839FA00D611D221F17
:100D4000749F3327A00D611D231F849F600D211DFB
:100D5000822F762F6A2F11249F5750409AF0F1F07E
:100D600088234AF0EE0FFF1FBB1F661F771F881FE7
:100D700091505040A9F79E3F510580F00C94D50644
:100D80000C9420075F3FE4F3983ED4F38695779563
:100D90006795B795F795E7959F5FC1F7FE2B880F8D
:100DA000911D9695879597F9089597F99F6780E823
:100DB00070E060E008959FEF80EC089500240A94AD
:100DC0001616170618060906089500240A94121626
:100DD0001306140605060895092E0394000C11F459
:100DE000882352F0BB0F40F4BF2B11F460FF04C006
:100DF0006F5F7F4F8F4F9F4F089557FD9058440F5F
:100E0000551F59F05F3F71F04795880F97FB991F69
:100E100061F09F3F79F08795089512161306140626
:100E2000551FF2CF4695F1DF08C0161617061806B3
:100E3000991FF1CF86957105610508940895E8948E
:100E4000BB2766277727CB0197F90895052E97FBD7
:100E50001EF400940E943D0757FD07D00E947C07B6
:100E600007FC03D04EF40C943D0750954095309507
:100E700021953F4F4F4F5F4F089590958095709506
:100E800061957F4F8F4F9F4F08952F923F924F92C2
:100E90005F926F927F928F929F92AF92BF92CF920A
:100EA000DF92EF92FF920F931F93CF93DF93CDB713
:100EB000DEB7CA1BDB0B0FB6F894DEBF0FBECDBF8B
:100EC00009942A88398848885F846E847D848C845C
:100ED0009B84AA84B984C884DF80EE80FD800C8165
:100EE0001B81AA81B981CE0FD11D0FB6F894DEBF48
:100EF0000FBECDBFED010895A1E21A2EAA1BBB1BA8
:100F0000FD010DC0AA1FBB1FEE1FFF1FA217B307D5
:100F1000E407F50720F0A21BB30BE40BF50B661FEB
:100F2000771F881F991F1A9469F7609570958095AF
:100F300090959B01AC01BD01CF010895A29FB00126
:100F4000B39FC001A39F700D811D1124911DB29FFD
:100F5000700D811D1124911D08955058BB27AA279B
:100F60000E94C5070C94EC060E94DE0638F00E9431
:100F7000E50620F039F49F3F19F426F40C94DB06C3
:100F80000EF4E095E7FB0C94D506E92F0E94FD06D0
:100F900058F3BA17620773078407950720F079F4AE
:100FA000A6F50C941F070EF4E0950B2EBA2FA02D7A
:100FB0000B01B90190010C01CA01A0011124FF2706
:100FC000591B99F0593F50F4503E68F11A16F04001
:100FD000A22F232F342F4427585FF3CF4695379500
:100FE0002795A795F0405395C9F77EF41F16BA0BC5
:100FF000620B730B840BBAF09150A1F0FF0FBB1F73
:10100000661F771F881FC2F70EC0BA0F621F731FBB
:10101000841F48F4879577956795B795F7959E3F18
:1010200008F0B0CF9395880F08F09927EE0F9795A9
:10103000879508950E942E080C94EC060E94E50600
:1010400058F00E94DE0640F029F45F3F29F00C942E
:10105000D50651110C9420070C94DB060E94FD0666
:1010600068F39923B1F3552391F3951B550BBB27D7
:10107000AA2762177307840738F09F5F5F4F220F1C
:10108000331F441FAA1FA9F335D00E2E3AF0E0E813
:1010900032D091505040E695001CCAF72BD0FE2F5D
:1010A00029D0660F771F881FBB1F261737074807F1
:1010B000AB07B0E809F0BB0B802DBF01FF279358A9
:1010C0005F4F3AF09E3F510578F00C94D5060C9492
:1010D00020075F3FE4F3983ED4F3869577956795B4
:1010E000B795F7959F5FC9F7880F911D96958795DE
:1010F00097F90895E1E0660F771F881FBB1F6217FD
:1011000073078407BA0720F0621B730B840BBA0BBA
:10111000EE1F88F7E09508950E9493086894B11136
:101120000C94200708950E94050788F09F5798F0B7
:10113000B92F9927B751B0F0E1F0660F771F881FDC
:10114000991F1AF0BA95C9F714C0B13091F00E94F6
:101150001F07B1E008950C941F07672F782F882789
:10116000B85F39F0B93FCCF3869577956795B3951D
:10117000D9F73EF490958095709561957F4F8F4F8C
:101180009F4F08950E949E07B7FF0895821B930BFF
:101190000895EE0FFF1F0590F491E02D09940F9331
:1011A0001F93CF93DF938230910510F482E090E09B
:1011B000E0914002F091410230E020E0B0E0A0E098
:1011C000309799F42115310509F44AC0281B390BD1
:1011D00024303105D8F58A819B816115710589F12B
:1011E000FB0193838283FE0111C040815181028102
:1011F000138148175907E0F04817590799F41097D9
:1012000061F012960C93129713961C933296CF01AD
:10121000DF91CF911F910F91089500934002109399
:101220004102F4CF2115310551F04217530738F030
:10123000A901DB019A01BD01DF01F801C1CFEF0176
:10124000F9CF9093410280934002CDCFFE01E20F8F
:10125000F31F819391932250310939832883D7CF8B
:1012600020913E0230913F02232B41F42091020154
:101270003091030130933F0220933E022091000100
:10128000309101012115310541F42DB73EB7409150
:10129000040150910501241B350BE0913E02F091B1
:1012A0003F02E217F307A0F42E1B3F0B2817390764
:1012B00078F0AC014E5F5F4F2417350748F04E0FB2
:1012C0005F1F50933F0240933E02819391939FCFC3
:1012D000F0E0E0E09CCFCF93DF930097E9F0FC01D2
:1012E000329713821282A0914002B0914102ED0127
:1012F00030E020E01097A1F420813181820F931F0C
:1013000020913E0230913F022817390709F061C051
:10131000F0933F02E0933E02DF91CF910895EA01FE
:10132000CE17DF07E8F54A815B819E014115510523
:10133000B1F7E901FB83EA8349915991C40FD51FA5
:10134000EC17FD0761F4808191810296840F951F4F
:10135000E90199838883828193819B838A83F0E06A
:10136000E0E012968D919C9113970097B9F52D911D
:101370003C911197CD010296820F931F20913E025E
:1013800030913F022817390739F6309751F51092FE
:10139000410210924002B0933F02A0933E02BCCFA4
:1013A000D383C28340815181840F951FC817D90709
:1013B00061F44E5F5F4F88819981480F591F5183B7
:1013C00040838A819B81938382832115310509F0B3
:1013D000B0CFF0934102E09340029ECFFD01DC01CB
:1013E000C0CF13821282D7CFB0E0A0E0EAEFF9E0DD
:1013F0000C9447078C01009751F4CB010E94CF0851
:101400008C01C801CDB7DEB7E0E10C946307FC01A5
:10141000E60FF71F9C0122503109E217F30708F489
:101420009DC0D901CD91DC911197C617D70798F0CF
:10143000C530D10530F3CE0104978617970708F31E
:10144000C61BD70B2297C193D1936D937C93CF0189
:101450000E946B09D6CF5B01AC1ABD0A4C018C0E01
:101460009D1EA0914002B0914102512C412CF12CC3
:10147000E12C109731F580913E0290913F02881542
:10148000990509F05CC04616570608F058C08091CF
:10149000000190910101009741F48DB79EB74091F2
:1014A000040150910501841B950BE817F90708F01A
:1014B00055C0F0933F02E0933E02F90171836083CF
:1014C000A0CF8D919C91119712966C9012971396C4
:1014D0007C901397A815B90559F56C0142E0C40E2C
:1014E000D11CCA14DB0420F1AC014A195B09DA01F2
:1014F0001296159780F06282738251834083D901DE
:101500006D937C93E114F10471F0D7011396FC9371
:10151000EE93129776CF22968C0F9D1FF90191833F
:101520008083F301EFCFF0934102E093400269CF53
:101530004816590608F42C017D01D3019ACFCB013E
:101540000E94CF087C01009749F0AE01B8010E94CB
:10155000B10AC8010E946B09870153CF10E000E077
:1015600050CFFB01DC0102C001900D924150504070
:10157000D8F70895FB01DC0101900D920020E1F7FE
:101580000895F894FFCF00004202800000000000A0
:101590004B01AB00D80098010901E700FB000300F4
:1015A00005000600090002000400070008000A0008
:1015B0000B000C000D000D0A004572726F723A208C
:1015C000496E76616C6964206D6F746F7220646916
:1015D00072656374696F6E004572726F723A20496A
:1015E0006E76616C69642073706565642076616CE9
:1015F000756500496E666F3A2073657475702829A9
:1016000020656E6400496E666F3A20706172736582
:0C161000436D642829207374617274001B
:107E0000112484B714BE81FFF0D085E080938100F7
:107E100082E08093C00088E18093C10086E0809377
:107E2000C20080E18093C4008EE0C9D0259A86E02C
:107E300020E33CEF91E0309385002093840096BBD3
:107E4000B09BFECF1D9AA8958150A9F7CC24DD24C4
:107E500088248394B5E0AB2EA1E19A2EF3E0BF2EE7
:107E6000A2D0813461F49FD0082FAFD0023811F036
:107E7000013811F484E001C083E08DD089C08234E0
:107E800011F484E103C0853419F485E0A6D080C0E4
:107E9000853579F488D0E82EFF2485D0082F10E0AE
:107EA000102F00270E291F29000F111F8ED06801E7
:107EB0006FC0863521F484E090D080E0DECF843638
:107EC00009F040C070D06FD0082F6DD080E0C81688
:107ED00080E7D80618F4F601B7BEE895C0E0D1E017
:107EE00062D089930C17E1F7F0E0CF16F0E7DF06D8
:107EF00018F0F601B7BEE89568D007B600FCFDCFD4
:107F0000A601A0E0B1E02C9130E011968C91119780
:107F100090E0982F8827822B932B1296FA010C0160
:107F200087BEE89511244E5F5F4FF1E0A038BF0790
:107F300051F7F601A7BEE89507B600FCFDCF97BE46
:107F4000E89526C08437B1F42ED02DD0F82E2BD052
:107F50003CD0F601EF2C8F010F5F1F4F84911BD097
:107F6000EA94F801C1F70894C11CD11CFA94CF0C13
:107F7000D11C0EC0853739F428D08EE10CD085E9AC
:107F80000AD08FE07ACF813511F488E018D01DD067
:107F900080E101D065CF982F8091C00085FFFCCF94
:107FA0009093C60008958091C00087FFFCCF809118
:107FB000C00084FD01C0A8958091C6000895E0E648
:107FC000F0E098E1908380830895EDDF803219F02E
:107FD00088E0F5DFFFCF84E1DECF1F93182FE3DFCA
:107FE0001150E9F7F2DF1F91089580E0E8DFEE27F6
:047FF000FF270994CA
:027FFE00040479
:00000001FF
