:020000040000FA
:100000000C9462000C948A000C948A000C948A0070
:100010000C948A000C948A000C948A000C948A0038
:100020000C948A000C948A000C948A000C948A0028
:100030000C948A000C948A000C948A000C948A0018
:100040000C949A040C948A000C9468040C94420456
:100050000C948A000C948A000C948A000C948A00F8
:100060000C948A000C948A000000000023002600F3
:10007000290000000008000201000003040700003E
:1000800000000000000000000000250028002B00F8
:1000900000000000240027002A00040404040404D3
:1000A0000404020202020202030303030303010227
:1000B00004081020408001020408102001020408F6
:1000C0001020F60611241FBECFEFD8E0DEBFCDBF53
:1000D00012E0A0E0B1E0EAE1F8E102C005900D9283
:1000E000A033B107D9F722E0A0E3B2E001C01D922E
:1000F000AE3DB207E1F710E0C2E6D0E004C02197C0
:10010000FE010E94130AC136D107C9F70E94E40418
:100110000C940B0C0C94000090E0FC01E255FF4F96
:10012000249186569F4FFC018491882399F090E09A
:10013000880F991FFC01E057FF4FA591B491FC0176
:10014000EA57FF4F859194918FB7F894EC91E22B89
:10015000EC938FBF0895AF92BF92CF92DF92EF9250
:10016000FF920F931F93CF93DF936C017B018B0161
:10017000040F151FEB015E01AE18BF08C017D107B1
:1001800059F06991D601ED91FC910190F081E02D3B
:10019000C6010995892B79F7C501DF91CF911F9190
:1001A0000F91FF90EF90DF90CF90BF90AF900895A8
:1001B000FC01538D448D252F30E0842F90E0821B6D
:1001C000930B541710F0CF96089501970895FC01F2
:1001D000918D828D981761F0A28DAE0FBF2FB11D4A
:1001E0005D968C91928D9F5F9F73928F90E00895A2
:1001F0008FEF9FEF08952FB7F89480913702909179
:100200003802A0913902B0913A022FBF8093430285
:1002100090934402A0934502B09346028BE392E090
:100220000E94E70097FF26C02FB7F894809137020D
:1002300090913802A0913902B0913A022FBF4091BB
:100240004302509144026091450270914602841B22
:10025000950BA60BB70B40913F0250914002609165
:1002600041027091420284179507A607B707B0F2C2
:100270008FEF9FEF0895FC01918D828D981731F0DB
:10028000828DE80FF11D858D90E008958FEF9FEF2F
:100290000895FC01918D228D892F90E0805C9F4F05
:1002A000821B91098F73992708958BE392E00E9436
:1002B000490121E0892B09F420E0822F089580E094
:1002C00090E0892B29F00E94550181110C940000C7
:1002D0000895FC01A48DA80FB92FB11DA35ABF4FDB
:1002E0002C91848D90E001968F739927848FA68935
:1002F000B7892C93A089B1898C91837080648C9389
:10030000938D848D981306C00288F389E02D808137
:100310008F7D80830895EF92FF920F931F93CF9369
:10032000DF93EC0181E0888F9B8D8C8D98131AC030
:10033000E889F989808185FF15C09FB7F894EE8917
:10034000FF896083E889F989808183708064808374
:100350009FBF81E090E0DF91CF911F910F91FF90BF
:10036000EF900895F62E0B8D10E00F5F1F4F0F7367
:100370001127E02E8C8D8E110CC00FB607FCFACF22
:10038000E889F989808185FFF5CFCE010E94690156
:10039000F1CFEB8DEC0FFD2FF11DE35AFF4FF082F3
:1003A0009FB7F8940B8FEA89FB8980818062CFCF59
:1003B000CF93DF93EC01888D8823B9F0AA89BB899C
:1003C000E889F9898C9185FD03C0808186FD0DC087
:1003D0000FB607FCF7CF8C9185FFF2CF808185FFA8
:1003E000EDCFCE010E946901E9CFDF91CF91089551
:1003F000833081F028F4813099F08230A9F008959B
:100400008730A9F08830C9F08430B1F48091800041
:100410008F7D03C0809180008F7780938000089546
:1004200084B58F7784BD089584B58F7DFBCF80918F
:10043000B0008F778093B00008958091B0008F7DD9
:10044000F9CFCF93DF93282F30E0F901EE58FF4F1B
:100450008491F901E255FF4FD491F901E656FF4F1F
:10046000C491CC23A1F081110E94F801EC2FF0E09F
:10047000EE0FFF1FE859FF4FA591B491EC91ED23CA
:1004800081E090E009F480E0DF91CF91089580E071
:1004900090E0FACF1F93CF93DF93282F30E0F9013C
:1004A000EE58FF4F8491F901E255FF4FD491F901C5
:1004B000E656FF4FC491CC23A9F0162F81110E945C
:1004C000F801EC2FF0E0EE0FFF1FEA57FF4FA59168
:1004D000B4918FB7F894EC91111108C0D095DE2338
:1004E000DC938FBFDF91CF911F910895DE2BF8CF62
:1004F0003FB7F8948091310290913202A09133027B
:10050000B091340226B5A89B05C02F3F19F0019683
:10051000A11DB11D3FBFBA2FA92F982F8827BC015D
:10052000CD01620F711D811D911D42E0660F771F85
:10053000881F991F4A95D1F70895FC01019000206A
:10054000E9F73197AF01481B590BBC018BE392E0EF
:100550000C94AB00CF93DF930E949D02EC018FE4DB
:1005600091E00E949D028C0F9D1FDF91CF91089515
:1005700082E591E00C94AA02EF92FF920F931F93F1
:10058000CF93DF936536710550F081E791E0DF91FD
:10059000CF911F910F91FF90EF900C94AA02DB0175
:1005A0008C012FEF30E00E940C0A24E630E040E09E
:1005B00050E00E947008E9017901000F111FF80155
:1005C000EB5CFE4F00811181802F0E948C002097F0
:1005D00051F460E0802FDF91CF911F910F91FF9038
:1005E000EF900C944A02CF3FD10511F461E0F2CFB5
:1005F000F801FF27EE58FF4FE491E33051F148F442
:10060000E130B9F0E23001F180E8E816F10474F766
:10061000E0CFE73041F1E83071F1E430A9F78091A3
:100620008000806280938000D0938B00C0938A000A
:1006300004C084B5806884BDC7BDDF91CF911F9190
:100640000F91FF90EF90089584B5806284BDC8BD7E
:10065000F4CF80918000806880938000D0938900DF
:10066000C0938800EACF8091B00080688093B0008A
:10067000C093B300E2CF8091B00080628093B0005D
:10068000C093B400DACF0F931F93CF93DF93C09141
:100690003502D0913602CE01D7FF04C088279927B2
:1006A0008C1B9D0B6DE270E0681B790B072E000C14
:1006B000880B990B0E94770720E030E044E352E476
:1006C0000E9464099B01AC01D7FF11C060E070E09B
:1006D00080E89FE30E94F70820E030E0A9010E9433
:1006E000B2070E94D609EB0110E000E012C020978B
:1006F000D9F360E070E080E89FE30E94F70820E013
:1007000030E0A9010E94B2070E94D6098B01D0E017
:10071000C0E0BE0181E090E00E94BC02BE0182E028
:1007200090E00E94BC02B80183E090E00E94BC020D
:10073000B80184E090E0DF91CF911F910F910C946C
:10074000BC02109236021092350270E060E081E047
:1007500090E00E94BC0270E060E082E090E00E94C5
:10076000BC0270E060E083E090E00E94BC0270E0B8
:1007700060E084E090E00C94BC021F93CF93DF9381
:10078000880F991F880F991FEC01C15CDE4F1881FB
:1007900060E0812F0E944A02CA8161E08C2F0E9492
:1007A0004A02812F0E9421028C2FDF91CF911F914D
:1007B0000C94210270E060E081E090E00E94BC02B5
:1007C00070E060E082E090E00E94BC0270E060E0D7
:1007D00083E090E00E94BC0270E060E084E090E082
:1007E0000E94BC0281E090E00E94BD0382E090E0A4
:1007F0000E94BD0383E090E00E94BD0384E090E08E
:100800000E94BD0370E060E081E090E00E94BC02C5
:1008100070E060E082E090E00E94BC0270E060E086
:1008200083E090E00E94BC0270E060E084E090E031
:100830000C94BC020F931F93CF93DF93EC0188813C
:100840009981009759F02A813B812617370730F0AC
:1008500081E0DF91CF911F910F9108958B016F5F20
:100860007F4F0E943E0B009759F0998388831B832A
:100870000A832C813D81232B59F7FC011082E8CF9C
:1008800080E0E7CF1F920F920FB60F9211242F93A3
:100890003F934F935F936F937F938F939F93AF9308
:1008A000BF93EF93FF938BE392E00E946901FF9166
:1008B000EF91BF91AF919F918F917F916F915F91D8
:1008C0004F913F912F910F900FBE0F901F90189551
:1008D0001F920F920FB60F9211242F938F939F9315
:1008E000EF93FF93E0914B02F0914C028081E091F5
:1008F0005102F091520282FD1BC0908180915402FE
:100900008F5F8F7320915502821741F0E09154025E
:10091000F0E0E55CFD4F958F80935402FF91EF91DD
:100920009F918F912F910F900FBE0F901F90189550
:100930008081F4CF1F920F920FB60F9211242F9344
:100940003F938F939F93AF93BF9380913702909182
:100950003802A0913902B0913A023091300223E07E
:10096000230F2D3758F50196A11DB11D209330029C
:100970008093370290933802A0933902B0933A02E1
:100980008091310290913202A0913302B0913402F1
:100990000196A11DB11D8093310290933202A09364
:1009A0003302B0933402BF91AF919F918F913F91E9
:1009B0002F910F900FBE0F901F90189526E8230FD0
:1009C0000296A11DB11DD2CFCF93DF93CDB7DEB775
:1009D000A3970FB6F894DEBF0FBECDBF789484B551
:1009E000826084BD84B5816084BD85B5826085BD2B
:1009F00085B5816085BD80916E00816080936E00B9
:100A000010928100809181008260809381008091AA
:100A1000810081608093810080918000816080935B
:100A200080008091B10084608093B1008091B0001B
:100A300081608093B00080917A00846080937A0016
:100A400080917A00826080937A0080917A00816040
:100A500080937A0080917A00806880937A00109267
:100A6000C100E0914B02F0914C0282E08083E09162
:100A70004702F09148021082E0914902F0914A0247
:100A80008FEC808310925302E0914F02F09150025C
:100A900086E08083E0914D02F0914E02808180617A
:100AA0008083E0914D02F0914E02808188608083C6
:100AB000E0914D02F0914E02808180688083E09148
:100AC0004D02F0914E0280818F7D80838CE891E011
:100AD0000E94AA0207E311E05FE3C52E51E0D52E84
:100AE000F801F0800E5F1F4F8F2D0E948C0060E098
:100AF0008F2D0E944A02C016D10691F70FE311E034
:100B00004FE4C42E41E0D42EF801F0808F2D0E94D6
:100B10008C0060E08F2D0E944A02F801F2808F2D38
:100B20000E948C0060E08F2D0E944A020C5F1F4FD4
:100B3000C016D10649F780EA91E00E94AA020E94FD
:100B4000A1030E9443030E94DA0319E02AE0422E27
:100B5000512C612C712C30E0232E30E0332E82EBAF
:100B600091E00E94AA0285EC91E00E94AA021A82FA
:100B700019821C821B821E821D8270E060E0CE0101
:100B800001960E941A0429813A8181112FC02115F2
:100B9000310519F0C9010E94B50A1A8219821E8214
:100BA0001D821C821B820E94FB0097FD27C08A3099
:100BB000910521F18AA31BA2ED80FE80FFEFEF1AC1
:100BC000FF0AB701CE0101960E941A04882359F347
:100BD00029813A818D819E81BE016E5D7F4F820F9A
:100BE000931F0E94040CFE82ED82DDCF1E821D82C7
:100BF00061E571E0C9010E94040CD5CFE980FA805B
:100C0000E114F10419F0C7010E94B50AF70100814F
:100C10006CED71E090E080E00E9441070097A1F147
:100C20000E9423076C0180910401081789F18091CB
:100C30000D01081781F18091160180137EC082E0BA
:100C400090E0189FD001199FB00D1124AC5FBE4FEA
:100C50001596ED91FC911697309701F117962D910D
:100C60003C9112161306D4F490E080E0419151912A
:100C7000C416D50621F1019628173907B9F78EED6C
:100C800091E00E94AA0225C0CC24CA94DC2CCBCFD0
:100C900090E080E0D6CF81E090E0D3CF189FF001C4
:100CA000199FF00D1124EC5FFE4F81819281C816CF
:100CB000D9062CF3838194818C159D0504F30134AE
:100CC00041F48091350290913602892B11F00E94F7
:100CD00043030E9478024B015C0184E6C82ED12CAC
:100CE000E12CF12C0E947802681979098A099B0984
:100CF000683E734081059105A8F3F1E0CF1AD10851
:100D0000E108F10828EE820E23E0921EA11CB11C1E
:100D1000C114D104E104F10429F780EA91E00E94B2
:100D2000AA022114310409F41ACF0E945501882324
:100D300009F415CF0E94000012CF83EF91E00E94CA
:100D40009D02602F8BE392E00E948B018FE491E083
:100D50000E949D0281E192E00E949D020D2C000CF8
:100D6000EE08FF08F7FE2CC06DE28BE392E00E94D4
:100D70008B0122273327A9012C193D094E095F0950
:100D800019A2CE0181967C01CA01B901A301920189
:100D90000E94C608605DF70162937F01211531054D
:100DA0004105510589F7E114F10419F0C7010E94CA
:100DB0009D028FE491E00E949D028BE192E061CF61
:100DC000A701960119A2CE0181967C01CA01B90141
:100DD000A30192010E94C608605DF70162937F0142
:100DE000211531054105510589F7DDCFEBE3F2E02F
:100DF0001382128288EE93E0A0E0B0E084839583B2
:100E0000A683B78389E291E09183808385EC90E0AB
:100E10009587848784EC90E09787868780EC90E0C4
:100E2000918B808B81EC90E0938B828B82EC90E0B5
:100E3000958B848B86EC90E0978B868B118E128E2F
:100E4000138E148E0895FC0188279927E894219128
:100E50002032E9F3293010F02E30C8F32B3241F064
:100E60002D3239F4689404C00E946D07820F911DE1
:100E7000219120532A30C0F31EF4909581959F4F05
:100E8000089548ED52E00E9446070895FA01A191A5
:100E9000B081009719F41097E1F0CD01DC01CD018C
:100EA0000D90002011F4C00113C0FB0121912223F9
:100EB00019F02015D9F7F3CFFB012191201519F472
:100EC0001E92119606C02223C1F70D900020A1F7B3
:100ED000D001FA01A193B08308957AE0979F902DF5
:100EE000879F802D910D11240895E89409C097FBE8
:100EF0003EF490958095709561957F4F8F4F9F4FF1
:100F00009923A9F0F92F96E9BB279395F695879534
:100F100077956795B795F111F8CFFAF4BB0F11F4F7
:100F200060FF1BC06F5F7F4F8F4F9F4F16C088239E
:100F300011F096E911C0772321F09EE8872F762FD4
:100F400005C0662371F096E8862F70E060E02AF015
:100F50009A95660F771F881FDAF7880F9695879501
:100F600097F908950E94C5070C9436080E94280836
:100F700038F00E942F0820F0952311F00C941F08E0
:100F80000C94250811240C946A080E94470870F3F9
:100F9000959FC1F3950F50E0551F629FF001729F1E
:100FA000BB27F00DB11D639FAA27F00DB11DAA1F2D
:100FB000649F6627B00DA11D661F829F2227B00D7A
:100FC000A11D621F739FB00DA11D621F839FA00D05
:100FD000611D221F749F3327A00D611D231F849F55
:100FE000600D211D822F762F6A2F11249F575040AC
:100FF0009AF0F1F088234AF0EE0FFF1FBB1F661F27
:10100000771F881F91505040A9F79E3F510580F0EF
:101010000C941F080C946A085F3FE4F3983ED4F3E5
:10102000869577956795B795F795E7959F5FC1F793
:10103000FE2B880F911D9695879597F9089597F93E
:101040009F6780E870E060E008959FEF80EC08956E
:1010500000240A9416161706180609060895002497
:101060000A9412161306140605060895092E039411
:10107000000C11F4882352F0BB0F40F4BF2B11F485
:1010800060FF04C06F5F7F4F8F4F9F4F089557FDE4
:101090009058440F551F59F05F3F71F04795880FE6
:1010A00097FB991F61F09F3F79F08795089512167D
:1010B00013061406551FF2CF4695F1DF08C0161629
:1010C00017061806991FF1CF8695710561050894DA
:1010D0000895E894BB2766277727CB0197F90895F1
:1010E000052E97FB1EF400940E94870857FD07D039
:1010F0000E94C60807FC03D04EF40C948708509554
:101100004095309521953F4F4F4F5F4F08959095F3
:101110008095709561957F4F8F4F9F4F08952F92C7
:101120003F924F925F926F927F928F929F92AF9277
:10113000BF92CF92DF92EF92FF920F931F93CF93C4
:10114000DF93CDB7DEB7CA1BDB0B0FB6F894DEBF5B
:101150000FBECDBF09942A88398848885F846E8481
:101160007D848C849B84AA84B984C884DF80EE80CB
:10117000FD800C811B81AA81B981CE0FD11D0FB6D4
:10118000F894DEBF0FBECDBFED010895A1E21A2E87
:10119000AA1BBB1BFD010DC0AA1FBB1FEE1FFF1F1B
:1011A000A217B307E407F50720F0A21BB30BE40B6B
:1011B000F50B661F771F881F991F1A9469F76095B2
:1011C0007095809590959B01AC01BD01CF0108956C
:1011D000A29FB001B39FC001A39F700D811D112478
:1011E000911DB29F700D811D1124911D08955058BD
:1011F000BB27AA270E940F090C9436080E942808D2
:1012000038F00E942F0820F039F49F3F19F426F49B
:101210000C9425080EF4E095E7FB0C941F08E92FC9
:101220000E94470858F3BA176207730784079507A7
:1012300020F079F4A6F50C9469080EF4E0950B2ED5
:10124000BA2FA02D0B01B90190010C01CA01A00118
:101250001124FF27591B99F0593F50F4503E68F173
:101260001A16F040A22F232F342F4427585FF3CFB4
:10127000469537952795A795F0405395C9F77EF485
:101280001F16BA0B620B730B840BBAF09150A1F0CE
:10129000FF0FBB1F661F771F881FC2F70EC0BA0F54
:1012A000621F731F841F48F4879577956795B795DC
:1012B000F7959E3F08F0B0CF9395880F08F09927D7
:1012C000EE0F9795879508950E9478090C9436083B
:1012D0000E942F0858F00E94280840F029F45F3F30
:1012E00029F00C941F0851110C946A080C942508DD
:1012F0000E94470868F39923B1F3552391F3951B96
:10130000550BBB27AA2762177307840738F09F5F26
:101310005F4F220F331F441FAA1FA9F335D00E2E93
:101320003AF0E0E832D091505040E695001CCAF700
:101330002BD0FE2F29D0660F771F881FBB1F2617C3
:1013400037074807AB07B0E809F0BB0B802DBF019A
:10135000FF2793585F4F3AF09E3F510578F00C9469
:101360001F080C946A085F3FE4F3983ED4F3869517
:1013700077956795B795F7959F5FC9F7880F911D8A
:101380009695879597F90895E1E0660F771F881F76
:10139000BB1F621773078407BA0720F0621B730B29
:1013A000840BBA0BEE1F88F7E09508950E94DD09C3
:1013B0006894B1110C946A0808950E944F0888F04F
:1013C0009F5798F0B92F9927B751B0F0E1F0660F09
:1013D000771F881F991F1AF0BA95C9F714C0B1304A
:1013E00091F00E946908B1E008950C946908672F94
:1013F000782F8827B85F39F0B93FCCF38695779579
:101400006795B395D9F73EF4909580957095619561
:101410007F4F8F4F9F4F08950E94E808B7FF0895B0
:10142000821B930B0895EE0FFF1F0590F491E02DA2
:1014300009940F931F93CF93DF938230910510F49B
:1014400082E090E0E091DC02F091DD0230E020E00B
:10145000B0E0A0E0309799F42115310509F44AC0B5
:10146000281B390B24303105D8F58A819B81611501
:10147000710589F1FB0193838283FE0111C04081D4
:1014800051810281138148175907E0F04817590725
:1014900099F4109761F012960C93129713961C937F
:1014A0003296CF01DF91CF911F910F910895009354
:1014B000DC021093DD02F4CF2115310551F0421703
:1014C000530738F0A901DB019A01BD01DF01F801E2
:1014D000C1CFEF01F9CF9093DD028093DC02CDCF35
:1014E000FE01E20FF31F819391932250310939835A
:1014F0002883D7CF2091DA023091DB02232B41F4ED
:1015000020912101309122013093DB022093DA02F5
:1015100020911F01309120012115310541F42DB793
:101520003EB74091230150912401241B350BE091DB
:10153000DA02F091DB02E217F307A0F42E1B3F0B57
:101540002817390778F0AC014E5F5F4F2417350735
:1015500048F04E0F5F1F5093DB024093DA028193F5
:1015600091939FCFF0E0E0E09CCFCF93DF93009783
:10157000E9F0FC01329713821282A091DC02B09153
:10158000DD02ED0130E020E01097A1F420813181EF
:10159000820F931F2091DA023091DB02281739075E
:1015A00009F061C0F093DB02E093DA02DF91CF91A2
:1015B0000895EA01CE17DF07E8F54A815B819E01B5
:1015C00041155105B1F7E901FB83EA83499159912E
:1015D000C40FD51FEC17FD0761F48081918102963D
:1015E000840F951FE90199838883828193819B836E
:1015F0008A83F0E0E0E012968D919C91139700971A
:10160000B9F52D913C911197CD010296820F931F50
:101610002091DA023091DB022817390739F630972A
:1016200051F51092DD021092DC02B093DB02A09320
:10163000DA02BCCFD383C28340815181840F951FCE
:10164000C817D90761F44E5F5F4F88819981480FB1
:10165000591F518340838A819B8193838283211503
:10166000310509F0B0CFF093DD02E093DC029ECFAC
:10167000FD01DC01C0CF13821282D7CFB0E0A0E021
:10168000E4E4FBE00C9491088C01009751F4CB0149
:101690000E94190A8C01C801CDB7DEB7E0E10C94B5
:1016A000AD08FC01E60FF71F9C0122503109E2173B
:1016B000F30708F49DC0D901CD91DC911197C617AD
:1016C000D70798F0C530D10530F3CE0104978617BF
:1016D000970708F3C61BD70B2297C193D1936D933D
:1016E0007C93CF010E94B50AD6CF5B01AC1ABD0A2C
:1016F0004C018C0E9D1EA091DC02B091DD02512C9C
:10170000412CF12CE12C109731F58091DA02909167
:10171000DB028815990509F05CC04616570608F0EB
:1017200058C080911F0190912001009741F48DB71E
:101730009EB74091230150912401841B950BE8171B
:10174000F90708F055C0F093DB02E093DA02F901E3
:1017500071836083A0CF8D919C91119712966C90AC
:10176000129713967C901397A815B90559F56C013B
:1017700042E0C40ED11CCA14DB0420F1AC014A19AA
:101780005B09DA011296159780F0628273825183A9
:101790004083D9016D937C93E114F10471F0D7017A
:1017A0001396FC93EE93129776CF22968C0F9D1F83
:1017B000F90191838083F301EFCFF093DD02E09391
:1017C000DC0269CF4816590608F42C017D01D301CB
:1017D0009ACFCB010E94190A7C01009749F0AE0113
:1017E000B8010E94FB0BC8010E94B50A870153CFC4
:1017F00010E000E050CFFB01DC0102C001900D922F
:1018000041505040D8F70895FB01DC0101900D9242
:101810000020E1F70895F894FFCF0100FF00530086
:101820000064000000000044FF000100000102000D
:1018300041D3002D00000000000000DE0280000007
:101840000000008B01AB00D800D8014901E7003B44
:10185000010300050006000900020004000700085B
:10186000000A000B000C000D000D0A004572726F9B
:10187000723A20496E76616C6964206D6F746F7284
:1018800020646972656374696F6E004572726F726D
:101890003A20496E76616C696420737065656420D6
:1018A00076616C756500496E666F3A207365747574
:1018B00070282920737461727400496E666F3A2033
:1018C0007365747570282920656E6400496E666FB3
:1018D0003A206C6F6F70282920737461727400490C
:1018E0006E666F3A207061727365436D64282920BB
:1018F0007374617274002C004572726F723A2049E1
:101900006E76616C69642076616C756500457272F3
:101910006F723A20496E76616C696420636F6D6DF9
:10192000616E6420636F64653A20002C2076616CE0
:1019300075653A2000496E666F3A20706172736572
:0A194000436D64282920656E6400E1
:107E0000112484B714BE81FFF0D085E080938100F7
:107E100082E08093C00088E18093C10086E0809377
:107E2000C20080E18093C4008EE0C9D0259A86E02C
:107E300020E33CEF91E0309385002093840096BBD3
:107E4000B09BFECF1D9AA8958150A9F7CC24DD24C4
:107E500088248394B5E0AB2EA1E19A2EF3E0BF2EE7
:107E6000A2D0813461F49FD0082FAFD0023811F036
:107E7000013811F484E001C083E08DD089C08234E0
:107E800011F484E103C0853419F485E0A6D080C0E4
:107E9000853579F488D0E82EFF2485D0082F10E0AE
:107EA000102F00270E291F29000F111F8ED06801E7
:107EB0006FC0863521F484E090D080E0DECF843638
:107EC00009F040C070D06FD0082F6DD080E0C81688
:107ED00080E7D80618F4F601B7BEE895C0E0D1E017
:107EE00062D089930C17E1F7F0E0CF16F0E7DF06D8
:107EF00018F0F601B7BEE89568D007B600FCFDCFD4
:107F0000A601A0E0B1E02C9130E011968C91119780
:107F100090E0982F8827822B932B1296FA010C0160
:107F200087BEE89511244E5F5F4FF1E0A038BF0790
:107F300051F7F601A7BEE89507B600FCFDCF97BE46
:107F4000E89526C08437B1F42ED02DD0F82E2BD052
:107F50003CD0F601EF2C8F010F5F1F4F84911BD097
:107F6000EA94F801C1F70894C11CD11CFA94CF0C13
:107F7000D11C0EC0853739F428D08EE10CD085E9AC
:107F80000AD08FE07ACF813511F488E018D01DD067
:107F900080E101D065CF982F8091C00085FFFCCF94
:107FA0009093C60008958091C00087FFFCCF809118
:107FB000C00084FD01C0A8958091C6000895E0E648
:107FC000F0E098E1908380830895EDDF803219F02E
:107FD00088E0F5DFFFCF84E1DECF1F93182FE3DFCA
:107FE0001150E9F7F2DF1F91089580E0E8DFEE27F6
:047FF000FF270994CA
:027FFE00040479
:00000001FF
