:100000000C9462000C948A000C948A000C948A0070
:100010000C948A000C948A000C948A000C948A0038
:100020000C948A000C948A000C948A000C948A0028
:100030000C948A000C948A000C948A000C948A0018
:100040000C94D3050C948A000C9443060C941D0662
:100050000C948A000C948A000C948A000C948A00F8
:100060000C948A000C948A000000000023002600F3
:10007000290000000008000201000003040700003E
:1000800000000000000000000000250028002B00F8
:1000900000000000240027002A00040404040404D3
:1000A0000404020202020202030303030303010227
:1000B00004081020408001020408102001020408F6
:1000C0001020690811241FBECFEFD8E0DEBFCDBFDE
:1000D00014E0A0E0B1E0ECECF8E102C005900D9274
:1000E000A234B107D9F725E0A2E4B4E001C01D9223
:1000F000A830B207E1F710E0C2E6D0E004C02197D3
:10010000FE010E942E0BC136D107C9F70E94750669
:100110000C94640C0C94000090E0FC01E255FF4F3D
:10012000249186569F4FFC018491882399F090E09A
:10013000880F991FFC01E057FF4FA591B491FC0176
:10014000EA57FF4F859194918FB7F894EC91E22B89
:10015000EC938FBF0895833081F028F4813099F0BB
:100160008230A9F008958730A9F08830C9F0843032
:10017000B1F4809180008F7D03C0809180008F77E3
:1001800080938000089584B58F7784BD089584B5E9
:100190008F7DFBCF8091B0008F778093B000089562
:1001A0008091B0008F7DF9CFCF93DF93282F30E07F
:1001B000F901EE58FF4F8491F901E255FF4FD491B8
:1001C000F901E656FF4FC491CC23A1F081110E94A2
:1001D000AB00EC2FF0E0EE0FFF1FE859FF4FA591A9
:1001E000B491EC91ED2381E090E009F480E0DF919F
:1001F000CF91089580E090E0FACF1F93CF93DF93E3
:10020000282F30E0F901EE58FF4F8491F901E255B3
:10021000FF4FD491F901E656FF4FC491CC23A9F0CA
:10022000162F81110E94AB00EC2FF0E0EE0FFF1FA4
:10023000EA57FF4FA591B4918FB7F894EC91111143
:1002400008C0D095DE23DC938FBFDF91CF911F9143
:100250000895DE2BF8CF3FB7F89480916304909116
:100260006404A0916504B091660426B5A89B05C0FE
:100270002F3F19F00196A11DB11D3FBFBA2FA92F25
:10028000982F8827BC01CD01620F711D811D911D22
:1002900042E0660F771F881F991F4A95D1F708958E
:1002A0008F929F92AF92BF92CF92DF92EF92FF9286
:1002B0004B015C010E942B016B017C010E942B0110
:1002C0006C197D098E099F09683E7340810591056F
:1002D000A8F321E0821A9108A108B10888EEC80E9F
:1002E00083E0D81EE11CF11C81149104A104B10427
:1002F00029F7FF90EF90DF90CF90BF90AF909F9045
:100300008F900895AF92BF92CF92DF92EF92FF92BB
:100310000F931F93CF93DF936C017B018B01040F2D
:10032000151FEB015E01AE18BF08C017D10759F0C9
:100330006991D601ED91FC910190F081E02DC6010B
:100340000995892B79F7C501DF91CF911F910F9105
:10035000FF90EF90DF90CF90BF90AF900895FC0199
:10036000538D448D252F30E0842F90E0821B930B1A
:10037000541710F0CF96089501970895FC01918DC0
:10038000828D981761F0A28DAE0FBF2FB11D5D96C3
:100390008C91928D9F5F9F73928F90E008958FEF65
:1003A0009FEF0895FC01918D828D981731F0828D19
:1003B000E80FF11D858D90E008958FEF9FEF089570
:1003C000FC01918D228D892F90E0805C9F4F821BD4
:1003D00091098F739927089587E694E00E94E001C0
:1003E00021E0892B09F420E0822F089580E090E03D
:1003F000892B29F00E94EC0181110C9400000895D2
:10040000FC01A48DA80FB92FB11DA35ABF4F2C9189
:10041000848D90E001968F739927848FA689B78980
:100420002C93A089B1898C91837080648C93938D77
:10043000848D981306C00288F389E02D80818F7D1A
:1004400080830895EF92FF920F931F93CF93DF93D2
:10045000EC0181E0888F9B8D8C8D98131AC0E88900
:10046000F989808185FF15C09FB7F894EE89FF89CF
:100470006083E889F98980818370806480839FBF6D
:1004800081E090E0DF91CF911F910F91FF90EF906D
:100490000895F62E0B8D10E00F5F1F4F0F7311277D
:1004A000E02E8C8D8E110CC00FB607FCFACFE889B8
:1004B000F989808185FFF5CFCE010E940002F1CF3E
:1004C000EB8DEC0FFD2FF11DE35AFF4FF0829FB72C
:1004D000F8940B8FEA89FB8980818062CFCFCF931C
:1004E000DF93EC01888D8823B9F0AA89BB89E8895C
:1004F000F9898C9185FD03C0808186FD0DC00FB602
:1005000007FCF7CF8C9185FFF2CF808185FFEDCF7F
:10051000CE010E940002E9CFDF91CF910895FC0146
:1005200001900020E9F73197AF01481B590BBC013E
:1005300087E694E00C9482018CE591E00C948F02A4
:10054000CF93DF930E948F02EC010E949C028C0FDC
:100550009D1FDF91CF910895FC019191992351F056
:1005600090539A30D0F38FE591E00E94A00290E082
:1005700080E0089581E090E008950C948F028F92BE
:100580009F92AF92BF92CF92DF92EF92FF920F9322
:100590001F93CF93DF93CDB7DEB7A1970FB6F89433
:1005A000DEBF0FBECDBF6C01990FEE08FF08F7FE4E
:1005B00041C06DE287E694E00E9422028C0122276E
:1005C0003327A9012C193D094E095F0919A2CE0153
:1005D00081967C019AE0892E912CA12CB12CCA0124
:1005E000B901A50194010E94E109605DF7016293E0
:1005F0007F01211531054105510589F790E080E023
:10060000309719F0CF010E948F02800F911FA196A1
:100610000FB6F894DEBF0FBECDBFDF91CF911F9113
:100620000F91FF90EF90DF90CF90BF90AF909F9091
:100630008F900895A701960119A28E010F5D1F4F9B
:100640008AE0C82ED12CE12CF12CCA01B901A701F6
:1006500096010E94E109605DF80162938F01211506
:1006600031054105510589F790E080E0309779F236
:10067000CF010E948F02CBCFCF93DF930E94BF02A6
:10068000EC010E949C028C0F9D1FDF91CF91089579
:10069000CF92DF92EF92FF920F931F93CF93DF934E
:1006A0008C016B012FEF30E0DB010E94270B24E669
:1006B00030E040E050E00E94B709E901790185E6A9
:1006C00091E00E94BD02C6010E94BF0284E891E051
:1006D0000E94BD02CE010E943C0385E6C816D104EB
:1006E00088F087E891E00E94BD02C6010E94BF0227
:1006F000DF91CF911F910F91FF90EF90DF90CF90FE
:100700000C949C02000F111FF801E25DFE4F008166
:100710001181802F0E948C00209761F460E0802F6F
:10072000DF91CF911F910F91FF90EF90DF90CF90CD
:100730000C94FD00CF3FD10511F461E0F0CFF8013A
:10074000FF27EE58FF4FE491E33061F148F4E130C8
:10075000B9F0E23011F180E8E816F10474F7DECF69
:10076000E73051F1E83081F1E430A9F78091800061
:10077000806280938000D0938B00C0938A0004C075
:1007800084B5806884BDC7BDDF91CF911F910F9163
:10079000FF90EF90DF90CF90089584B5806284BD84
:1007A000C8BDF2CF80918000806880938000D09394
:1007B0008900C0938800E8CF8091B0008068809362
:1007C000B000C093B300E0CF8091B000806280930E
:1007D000B000C093B400D8CF0F931F93CF93DF9393
:1007E000EC018B016130710571F48C01000F111F58
:1007F000000F111F045E1E4F60E0F80180810E940F
:10080000FD0061E010C06230710509F58C01000F38
:10081000111F000F111F045E1E4F61E0F80180815F
:100820000E94FD0060E0F80182810E94FD00CC0F73
:10083000DD1FCC0FDD1FC45EDE4F88810E94D40017
:100840008A81DF91CF911F910F910C94D400672B77
:1008500049F48C01000F111F000F111F045E1E4F81
:1008600061E0CBCF84EA91E00E94A002C8010E941F
:10087000BF02DF91CF911F910F910C949C02CF93F7
:10088000DF93C82FD0E0BE0181E090E00E94EC032E
:10089000BE0182E090E00E94EC03BE0183E090E0A4
:1008A0000E94EC03BE0184E090E0DF91CF910C94B4
:1008B000EC0387ED91E00E94A00280915804909192
:1008C00059048130910571F481E00E943F0487E36F
:1008D00092E00E94A00289E190E090935D048093F1
:1008E0005C0408958230910511F482E0EECF892BEB
:1008F00071F78AEE91E00E94A00210925D041092BE
:100900005C048DE092E00E94A00280E00C943F0421
:100910008F929F92AF92BF92CF92DF92EF92FF920F
:100920000F931F93CF93DF9380915C0490915D04AC
:1009300020915A0430915B0482179307B1F1909390
:100940005B0480935A04009721F41092590410928A
:10095000580420910701289F8001299F100D112420
:1009600020910601289FE001299FD00D1124B80194
:1009700081E090E00E944803B80182E090E00E948C
:100980004803BE0183E090E00E944803BE0184E07A
:1009900090E00E9448038EE992E00E94BD0280919F
:1009A0005C0490915D040E943C03C0915804D09176
:1009B00059048091560490915704C817D90701F142
:1009C00010925904109258040E94590468EE73E082
:1009D00080E090E00E945001D0935904C0935804E5
:1009E000D0935704C09356040E94590484E692E0C1
:1009F0000E94BD0280915804909159040E943C03CA
:100A000080915404909155042091520430915304E4
:100A10008217930709F4BAC0909353048093520449
:100A200080E792E00E94A002C0915404D091550446
:100A3000CE01D7FF04C0882799278C1B9D0B6DE240
:100A400070E0681B790B072E000C880B990B0E9435
:100A5000BE0820E030E044E352E40E947F0A6B01CC
:100A60007C0190915C0480915D04D7FF6EC0C92F1A
:100A7000D82FBE010D2E000C880B990B0E94BE08CA
:100A80004B015C01A701960160E070E080E89FE304
:100A90000E94120A9B01AC01C501B4010E94F90831
:100AA0000E94F10A8B0100930701C09306018FE7B2
:100AB00092E00E94BD02C8010E94BF0284E891E05A
:100AC0000E94BD02CE010E943C03C0915C04D09103
:100AD0005D049E010D2E000C440B550B2D52310967
:100AE00041095109A4E6B0E00E94D60923ED3FEF89
:100AF0004FEF5FEF0E94B70930E0C217D3070CF445
:100B00009E0130935D0420935C0486EA92E00E948B
:100B1000BD0280915C0490915D040E943C0385ECD1
:100B200092E00E94BD028091540490915504DF919F
:100B3000CF911F910F91FF90EF90DF90CF90BF90DA
:100B4000AF909F908F900C943C03092F182FCD2BC2
:100B5000D9F0B801012E000C880B990B0E94BE0839
:100B60004B015C01A701960160E070E080E89FE323
:100B70000E94120A9B01AC01C501B4010E94F90850
:100B80000E94F10AEB018FCFE8018DCFDF91CF9169
:100B90001F910F91FF90EF90DF90CF90BF90AF909B
:100BA0009F908F9008951F920F920FB60F9211246D
:100BB0002F933F938F939F93AF93BF9380915F0445
:100BC00090916004A0916104B091620430915E0440
:100BD00023E0230F2D3758F50196A11DB11D209359
:100BE0005E0480935F0490936004A0936104B093CB
:100BF00062048091630490916404A0916504B091B3
:100C000066040196A11DB11D809363049093640452
:100C1000A0936504B0936604BF91AF919F918F91AB
:100C20003F912F910F900FBE0F901F90189526E8BF
:100C3000230F0296A11DB11DD2CF1F920F920FB6A6
:100C40000F9211242F933F934F935F936F937F9352
:100C50008F939F93AF93BF93EF93FF9387E694E0B7
:100C60000E940002FF91EF91BF91AF919F918F91F0
:100C70007F916F915F914F913F912F910F900FBE98
:100C80000F901F9018951F920F920FB60F9211247C
:100C90002F938F939F93EF93FF93E0917704F091BD
:100CA00078048081E0917D04F0917E0482FD1BC078
:100CB0009081809180048F5F8F73209181048217CF
:100CC00041F0E0918004F0E0E959FB4F958F80936B
:100CD0008004FF91EF919F918F912F910F900FBE04
:100CE0000F901F9018958081F4CF789484B582601E
:100CF00084BD84B5816084BD85B5826085BD85B5C0
:100D0000816085BD80916E00816080936E0010923D
:100D100081008091810082608093810080918100B8
:100D20008160809381008091800081608093800049
:100D30008091B10084608093B1008091B0008160A7
:100D40008093B00080917A00846080937A008091D3
:100D50007A00826080937A0080917A00816080932B
:100D60007A0080917A00806880937A001092C100A6
:100D7000E0917704F091780482E08083E09173043D
:100D8000F09174041082E0917504F09176048FEC78
:100D9000808310927F04E0917B04F0917C0486E0D4
:100DA0008083E0917904F0917A048081806180836E
:100DB000E0917904F0917A04808188608083E091E9
:100DC0007904F0917A04808180688083E0917904CD
:100DD000F0917A0480818F7D8083C0E3D1E058E375
:100DE000E52E51E0F52E18812296812F0E948C006D
:100DF00060E0812F0E94FD00EC16FD06A1F7C0E225
:100E0000D1E01881812F0E948C0060E0812F0E9428
:100E1000FD001A81812F0E948C0060E0812F0E94CA
:100E2000FD00249621E0C033D20759F781E090E01D
:100E300090935B0480935A049093570480935604D4
:100E4000909353048093520410925D0410925C04BA
:100E500010925904109258041092550410925404A0
:100E60000E94880429E0622E30E0C32E30E0D32EA9
:100E70004AEF842E912CA12CB12C87E694E00E949D
:100E8000E001892B09F496C080926B0490926C0467
:100E9000A0926D04B0926E04C2E4D4E010E087E644
:100EA00094E00E94E001892B09F410C11F30B8F7CB
:100EB00087E694E00E94BE01FE01E254F4408A30CD
:100EC00081F4EE5BFB4F10821091420411110CC0B3
:100ED0008DEC92E00E94A00287E993E00E94A002BC
:100EE00069C089931F5FDBCF6CE270E082E494E01D
:100EF0000E94590C009719F48CEE92E0EBCF2091F0
:100F000043042C3211F41F3F19F489E093E0E2CF3F
:100F1000EC012196FC018181811107C08BE293E0F5
:100F20000E94A00284E793E0D5CFCE010E94AC02DC
:100F3000892B19F48BE493E0F3CFCE010E94AC022D
:100F40007C01F1E0EF22FF2480FFECCFCE010E9474
:100F50009608EC01019631F383E090E00E94340B97
:100F60002C01FC011083D283C183892B09F4B4CFF7
:100F7000812F877F843431F08EEA810F823078F4BC
:100F8000133551F1143451F11C3409F446C093E087
:100F9000E92EF12C123511F180EE93E002C08BEBBB
:100FA00093E00E94A00282E094E00E94A002C201AD
:100FB0000E94D00B64E670E080E090E00E94500157
:100FC000C114D10409F459CF0E94EC01882309F41B
:100FD00054CF0E94000051CFF12CE12C6E9CD00127
:100FE0006F9CB00D1124A85CBE4F1596ED91FC913D
:100FF00016973097B1F017962D913C911216130663
:1010000084F490E080E041915191C417D507E1F05C
:10101000019628173907B9F7BFCF82E0E82EF12CE7
:10102000DDCF6E9CF0016F9CF00D1124E85CFE4F4B
:1010300081819281C817D9070CF4AECF8381948146
:101040008C179D070CF4A8CF1C3439F144F41434E8
:10105000B9F0C2010E94D00B0E948804ABCF1235B8
:1010600061F11335B1F780915C0490915D04909328
:101070005B0480935A04D0935D04C0935C04E9CF71
:10108000809158049091590490935704809356048A
:10109000D0935904C0935804DCCF809154049091AC
:1010A00055049093530480935204D195C195D1096E
:1010B000D0935504C0935404CCCF809154049091A4
:1010C00055049093530480935204F2CF80E294E04D
:1010D00005CFE7E6F4E01382128288EE93E0A0E009
:1010E000B0E084839583A683B78382E191E0918306
:1010F000808385EC90E09587848784EC90E09787E7
:10110000868780EC90E0918B808B81EC90E0938BD4
:10111000828B82EC90E0958B848B86EC90E0978BB1
:10112000868B118E128E138E148E0895FC018827E3
:101130009927E89421912032E9F3293010F02E30DC
:10114000C8F32B3241F02D3239F4689404C00E9468
:10115000B408820F911D219120532A30C0F31EF450
:10116000909581959F4F08957AE0979F902D879F46
:10117000802D910D11240895E89409C097FB3EF449
:1011800090958095709561957F4F8F4F9F4F9923D4
:10119000A9F0F92F96E9BB279395F6958795779552
:1011A0006795B795F111F8CFFAF4BB0F11F460FF12
:1011B0001BC06F5F7F4F8F4F9F4F16C0882311F06A
:1011C00096E911C0772321F09EE8872F762F05C07E
:1011D000662371F096E8862F70E060E02AF09A9519
:1011E000660F771F881FDAF7880F9695879597F90E
:1011F00008950E940C090C947D090E946F0938F033
:101200000E94760920F0952311F00C9466090C9445
:101210006C0911240C94B1090E948E0970F3959FFA
:10122000C1F3950F50E0551F629FF001729FBB27DD
:10123000F00DB11D639FAA27F00DB11DAA1F649F79
:101240006627B00DA11D661F829F2227B00DA11D2C
:10125000621F739FB00DA11D621F839FA00D611DB2
:10126000221F749F3327A00D611D231F849F600DD3
:10127000211D822F762F6A2F11249F5750409AF0FC
:10128000F1F088234AF0EE0FFF1FBB1F661F771F88
:10129000881F91505040A9F79E3F510580F00C9453
:1012A00066090C94B1095F3FE4F3983ED4F3869548
:1012B00077956795B795F795E7959F5FC1F7FE2BF3
:1012C000880F911D9695879597F9089597F99F67CF
:1012D00080E870E060E008959FEF80EC08950024BE
:1012E0000A941616170618060906089500240A948B
:1012F00012161306140605060895092E0394000C11
:1013000011F4882352F0BB0F40F4BF2B11F460FF9F
:1013100004C06F5F7F4F8F4F9F4F089557FD9058C8
:10132000440F551F59F05F3F71F04795880F97FBA9
:10133000991F61F09F3F79F0879508951216130663
:101340001406551FF2CF4695F1DF08C01616170692
:101350001806991FF1CF86957105610508940895C7
:10136000E894BB2766277727CB0197F90895052EC8
:1013700097FB1EF400940E94CE0957FD07D00E94EF
:10138000E10907FC03D04EF40C94CE09509540952A
:10139000309521953F4F4F4F5F4F08959095809521
:1013A000709561957F4F8F4F9F4F08950E94030A5C
:1013B000A59F900DB49F900DA49F800D911D1124A9
:1013C0000895A1E21A2EAA1BBB1BFD010DC0AA1F86
:1013D000BB1FEE1FFF1FA217B307E407F50720F09E
:1013E000A21BB30BE40BF50B661F771F881F991F19
:1013F0001A9469F760957095809590959B01AC0162
:10140000BD01CF010895A29FB001B39FC001A39F6A
:10141000700D811D1124911DB29F700D811D11242D
:10142000911D08955058BB27AA270E942A0A0C94A0
:101430007D090E946F0938F00E94760920F039F486
:101440009F3F19F426F40C946C090EF4E095E7FB29
:101450000C946609E92F0E948E0958F3BA176207A7
:1014600073078407950720F079F4A6F50C94B0096A
:101470000EF4E0950B2EBA2FA02D0B01B9019001AF
:101480000C01CA01A0011124FF27591B99F0593FF3
:1014900050F4503E68F11A16F040A22F232F342F3B
:1014A0004427585FF3CF469537952795A795F04089
:1014B0005395C9F77EF41F16BA0B620B730B840B9E
:1014C000BAF09150A1F0FF0FBB1F661F771F881F56
:1014D000C2F70EC0BA0F621F731F841F48F48795AE
:1014E00077956795B795F7959E3F08F0B0CF9395A0
:1014F000880F08F09927EE0F9795879508950E9419
:10150000930A0C947D090E94760958F00E946F0995
:1015100040F029F45F3F29F00C94660951110C94B6
:10152000B1090C946C090E948E0968F39923B1F3F8
:10153000552391F3951B550BBB27AA2762177307F9
:10154000840738F09F5F5F4F220F331F441FAA1F8D
:10155000A9F335D00E2E3AF0E0E832D09150504049
:10156000E695001CCAF72BD0FE2F29D0660F771FF7
:10157000881FBB1F261737074807AB07B0E809F0DD
:10158000BB0B802DBF01FF2793585F4F3AF09E3F62
:10159000510578F00C9466090C94B1095F3FE4F3AF
:1015A000983ED4F3869577956795B795F7959F5FA5
:1015B000C9F7880F911D9695879597F90895E1E0F1
:1015C000660F771F881FBB1F621773078407BA0750
:1015D00020F0621B730B840BBA0BEE1F88F7E095AB
:1015E00008950E94F80A6894B1110C94B109089505
:1015F0000E94960988F09F5798F0B92F9927B75104
:10160000B0F0E1F0660F771F881F991F1AF0BA95A6
:10161000C9F714C0B13091F00E94B009B1E008954B
:101620000C94B009672F782F8827B85F39F0B93F3D
:10163000CCF3869577956795B395D9F73EF4909559
:101640008095709561957F4F8F4F9F4F08950E94B1
:10165000030AB7FF0895821B930B0895EE0FFF1F37
:101660000590F491E02D09940F931F93CF93DF938E
:101670008230910510F482E090E0E0910605F0914F
:10168000070530E020E0B0E0A0E0309799F42115A4
:10169000310509F44AC0281B390B24303105D8F52F
:1016A0008A819B816115710589F1FB019383828396
:1016B000FE0111C0408151810281138148175907F1
:1016C000E0F04817590799F4109761F012960C93BF
:1016D000129713961C933296CF01DF91CF911F91F1
:1016E0000F9108950093060510930705F4CF211577
:1016F000310551F04217530738F0A901DB019A0177
:10170000BD01DF01F801C1CFEF01F9CF90930705CB
:1017100080930605CDCFFE01E20FF31F81939193D5
:101720002250310939832883D7CF20910405309185
:101730000505232B41F420910A0130910B013093D0
:101740000505209304052091080130910901211518
:10175000310541F42DB73EB740910C0150910D0178
:10176000241B350BE0910405F0910505E217F30702
:10177000A0F42E1B3F0B2817390778F0AC014E5F01
:101780005F4F2417350748F04E0F5F1F5093050534
:1017900040930405819391939FCFF0E0E0E09CCFCC
:1017A000CF93DF930097E9F0FC0132971382128206
:1017B000A0910605B0910705ED0130E020E01097FB
:1017C000A1F420813181820F931F20910405309173
:1017D00005052817390709F061C0F0930505E09366
:1017E0000405DF91CF910895EA01CE17DF07E8F5F0
:1017F0004A815B819E0141155105B1F7E901FB83E7
:10180000EA8349915991C40FD51FEC17FD0761F484
:10181000808191810296840F951FE90199838883C5
:10182000828193819B838A83F0E0E0E012968D9120
:101830009C9113970097B9F52D913C911197CD018B
:101840000296820F931F20910405309105052817F9
:10185000390739F6309751F51092070510920605B1
:10186000B0930505A0930405BCCFD383C283408108
:101870005181840F951FC817D90761F44E5F5F4FE0
:1018800088819981480F591F518340838A819B81A8
:10189000938382832115310509F0B0CFF0930705BA
:1018A000E09306059ECFFD01DC01C0CF13821282BA
:1018B000D7CFFC018191861721F08823D9F799278A
:0C18C00008953197CF010895F894FFCFF0
:1018CC00010002000000010100000805800000007A
:1018DC00000022028201AF016F02E001BE01D201C1
:1018EC0002000400070008000A000B000C000D00A9
:1018FC00030005000600090053000064000000000E
:10190C00004400000200000103004C00002D000008
:10191C000000005200002D00000000000D0A0066BF
:10192C00616C736500496E666F3A207365744D6F18
:10193C00746F725370656564207370642C207077BB
:10194C006D3A20002C20004572726F723A20496E5D
:10195C0076616C69642073706565642076616C7562
:10196C00653A20004572726F723A207365744D6F40
:10197C00746F72446972656374696F6E20496E7618
:10198C00616C6964206D6F746F7220646972656339
:10199C0074696F6E3A2000496E666F3A20736574F5
:1019AC00446972656374696F6E00496E666F3A20A4
:1019BC00736574446972656374696F6E2073746FB8
:1019CC007070696E67206D6F746F727300496E660C
:1019DC006F3A20736574446972656374696F6E2025
:1019EC0073657474696E67207A65726F20646972AE
:1019FC00656374696F6E00496E666F3A2073657427
:101A0C00446972656374696F6E2073657474696E72
:101A1C00672073706565643A205245564449525F9D
:101A2C0053504400446972656374696F6E3A2000C8
:101A3C00496E666F3A20736574416E676C65004938
:101A4C006E666F3A20736574416E676C65206C65C9
:101A5C00667453706565642C207269676874537082
:101A6C006565643A2000496E666F3A20736574416F
:101A7C006E676C652073657474696E67207370652E
:101A8C0065643A2000416E676C653A2000457272BD
:101A9C006F723A207061727365436D6420636F6D71
:101AAC006D616E6420616273656E74004572726F55
:101ABC00723A207061727365436D6420636F6D6D53
:101ACC006120616273656E74004572726F723A20A8
:101ADC007061727365436D642077726F6E672063FB
:101AEC006F646520666F726D6174004572726F72FF
:101AFC003A207061727365436D6456616C75652034
:101B0C007A65726F2076616C7565004572726F72C2
:101B1C003A207061727365436D6456616C75652013
:101B2C0076616C7565206973206E6F74206E756DAF
:101B3C00626572004572726F723A207061727365E1
:101B4C00436D642077726F6E672076616C756520CB
:101B5C00666F726D6174004572726F723A207365B4
:101B6C0074436D6420436F6D6D616E64207061729F
:101B7C0073696E67206572726F72004572726F7254
:101B8C003A20697356616C6964436F6D6D616E6464
:101B9C0020636F6465206E6F7420666F756E6400D1
:101BAC004572726F723A20697356616C6964436F47
:101BBC006D6D616E642077726F6E672076616C75E7
:101BCC0065004572726F723A20736574436D6420C0
:101BDC00496E76616C696420636F6D6D616E640033
:101BEC004572726F723A20736574436D6420436F53
:101BFC006D6D616E642072656164206572726F72C6
:021C0C000000D6
:00000001FF
